:020000040800F2
:10000000A01A002029020008FD0B00088B0B000835
:10001000F90B0008E3020008FD10000800000000D2
:100020000000000000000000000000008F0D00082C
:1000300045050008000000008D0C0008E50E0008D2
:10004000430200084302000843020008430200087C
:10005000430200084302000843020008430200086C
:10006000C1050008430200081D06000843020008FD
:100070004302000843020008E902000843020008A6
:10008000430200084302000843020008430200083C
:10009000430200084302000843020008430200082C
:1000A000430200084302000843020008430200081C
:1000B00043020008510F00084302000843020008F1
:1000C00043020008430200084302000843020008FC
:1000D00043020008430200084302000843020008EC
:1000E00049050008430200084302000843020008D3
:1000F00043020008430200084302000843020008CC
:1001000043020008430200084302000843020008BB
:1001100043020008430200084302000843020008AB
:100120004302000843020008FD02000843020008E1
:10013000430200084302000843020008430200088B
:10014000430200084302000843020008430200087B
:10015000430200084302000843020008430200086B
:10016000430200084302000843020008430200085B
:10017000430200084302000843020008430200084B
:10018000430200084302000800F002F800F03CF8C7
:100190000AA090E8000C82448344AAF10107DA45E2
:1001A00001D100F031F8AFF2090EBAE80F0013F0F8
:1001B000010F18BFFB1A43F0010318475C2A000027
:1001C0007C2A0000103A24BF78C878C1FAD85207B8
:1001D00024BF30C830C144BF04680C6070470000C1
:1001E0000023002400250026103A28BF78C1FBD840
:1001F000520728BF30C148BF0B6070471FB502F0DF
:1002000006FD1FBD10B510BD00F031F81146FFF717
:10021000F5FF02F035F800F04FF803B4FFF7F2FFF6
:1002200003BC00F057F80000094880470948004720
:10023000FEE7FEE7FEE7FEE7FEE7FEE7FEE7FEE796
:10024000FEE7FEE704480549054A064B70470000F3
:10025000E90E000889010008A0140020A01A00205F
:10026000A0160020A0160020704770477047754602
:1002700000F02CF8AE4605006946534620F0070012
:10028000854618B020B5FFF7DDFFBDE820404FF0F0
:1002900000064FF000074FF000084FF0000B21F070
:1002A0000701AC46ACE8C009ACE8C009ACE8C0093D
:1002B000ACE8C0098D46704710B50446AFF3008026
:1002C0002046BDE81040FFF7A8BF00000048704777
:1002D0004014002001491820ABBEFEE726000200B2
:1002E000704700BFFEE7000010B54FF0C051024854
:1002F00000F00EF810BD00005860024010B54FF03D
:100300008151024800F004F810BD00004064024032
:100310000246094B9A4201D2084801E006481038CB
:1003200001F000531BB1064B0B40C36002E0044BCD
:100330000B40836070470000106402400060024080
:100340007D0F7D0F016821F0010101600021016036
:1003500041608160C1600161212141614A49884257
:1003600004D13D21484A103A91608CE04649183149
:10037000884205D14FF47461434A103A916082E09B
:1003800041493031884205D14FF474113E4A103A48
:10039000916078E03C494831884205D14FF0746162
:1003A000394A103A91606EE037496031884204D191
:1003B0003649354A103AD16065E033497831884290
:1003C00004D13349304A103AD1605CE02E49903173
:1003D000884204D12F492C4A103AD16053E02A496F
:1003E000A831884205D14FF03D51274A103AD160DB
:1003F00049E02949884204D13D21274A083A116041
:1004000041E025491831884205D14FF47461224AF0
:10041000083A116037E020493031884205D14FF465
:1004200074111D4A083A11602DE01B494831884279
:1004300005D14FF07461184A083A116023E016495B
:100440006031884204D11149134A121F11601AE029
:1004500011497831884204D10D490F4A121F1160A9
:1004600011E00D499031884204D10A490A4A121F0D
:10047000116008E00849A831884204D14FF03D518D
:10048000054A121F11607047106002403D000020B5
:10049000400F002000003D20106402400146002073
:1004A0000A6802F001020AB1012000E00020704752
:1004B00010B501F080034BB122B1436943F08003D2
:1004C000436103E0436923F08003436180290BD03B
:1004D0002AB1036801F01E042343036004E00368AB
:1004E00001F01E04A343036010BD000010B50022FC
:1004F0000268134B1A40CC680B6823434C692343B2
:100500008C692343CC6923430C6A23434C6A2343FD
:100510008C6A23434C6B23438C6B23431A43026046
:10052000426922F00702D1E90B3423431A434261A6
:100530000B6943604B6883608B68C36010BD00002B
:100540003F801CF07047000010B502F0DDF802F0AB
:10055000E7F81648C1781648164A126881541348BD
:100560000179134A13480068401C11540F48017860
:100570001148104A126881540C4841780E4A0D48BF
:100580000068401C11540B480068801C0949086031
:10059000084600680949884202D3002005490860DE
:1005A0004FF4805000F084F810BD000014000020CB
:1005B00020A1076804000020B0710B6890D00300F0
:1005C00010B5C02014490870A82048700120887018
:1005D0001020C870FF200871FF210F484171817100
:1005E0000021C171C0200C490872A8210A4841723B
:1005F00001218172C172002007498881C881088267
:1006000048820120087501F04BFF042000F050F8EB
:1006100002F01AFA10BD0000DC13002010B501F042
:10062000FFFF02F00DF81C48C1781C481C4A1268F4
:10063000815419480179194A19480068401C11541D
:10064000154801781748164A1268815412484178B3
:10065000144A13480068401C115411480068801C5B
:100660000F490860084600680F49884202D30020FD
:100670000B4908600D480068801C0C49086008465A
:1006800000680949884202D3002008490860102008
:1006900000F00EF810BD0000080000200000006807
:1006A0000000002090D0036890D003004C00002090
:1006B0000149086070470000143C014000212349B3
:1006C0008279002A3AD00A46126803689A430B4698
:1006D0001A600A1D126803689A430B1D1A6002799A
:1006E00011440A6803681A430A60184A08321268FB
:1006F00003689A43154B08331A601A1D1268036881
:100700009A43124B0C331A604279102A0ED11A1FE9
:10071000126803681A430D4B08331A601A1D1268D9
:1007200003681A43094B0C331A600DE007494279FC
:1007300011440A6803681A430A6005E0027911440B
:100740000A6803689A430A6070470000003C014051
:1007500030B10749096841F48061054A116005E03C
:100760000349096821F48061014A11607047000063
:10077000003C024070B504460A460026092502B92D
:1007800009E0012A01D1160205E0022A01D1160270
:1007900001E04FF4407600F09FF80546092D28D17E
:1007A0001548006820F44070134908600846006846
:1007B000304308600846006820F0F80008600846EA
:1007C000006844F0020108430B49086008460068CD
:1007D00040F48030086000F07FF805460648006865
:1007E00020F00200044908600846006820F0F80084
:1007F0000860284670BD0000103C024009201349E3
:10080000096801F48031B1F5803F01D101201CE07D
:100810000E49096801F0100109B1062015E00B49E5
:10082000096801F4807109B102200EE007490968E6
:1008300001F0EF0109B1072007E00449096801F060
:10084000020109B1082000E0092070470C3C024079
:100850000348006840F0004001490860704700000C
:10086000103C024030B502460C46092500F034F831
:100870000546092D19D10E48006820F440700C4936
:1008800008600846006840F4007008600846006888
:1008900040F001000860146000F01EF805460448AE
:1008A000006820F0010002490860284630BD0000C1
:1008B000103C02400548006800F0004028B10448A0
:1008C00002490C390860034808607047103C024038
:1008D00023016745AB89EFCD08B509200090FFF7EC
:1008E0008DFF009002E0FFF789FF00909DF8000067
:1008F0000128F8D09DF8000008BD000051B1820029
:10090000A2F1C042126842F001038200A2F1C0428B
:10091000136009E08200A2F1C0421268034B1A4042
:100920008300A3F1C0431A6070470000FEFF0F0070
:10093000D0E901121143C2681143026911434269AF
:10094000114382691143C2691143026A1143426A29
:100950001143826A1143C26A1143026B1143026858
:100960009200A2F1C0421160816808290BD1016890
:100970008900A1F1C041096841F040020168890085
:10098000A1F1C0410A60416B0968426B526841EABB
:100990000211426B926841EA0221426B928941EA5C
:1009A0000241426B128A41EA0251426B127D41EAD6
:1009B0000261426B926911430268521C9200A2F1DB
:1009C000C0421160C16AB1F5804F1BD1816B0968CB
:1009D000826B526841EA0211826B926841EA0221FD
:1009E000826B128A41EA0251826B127D41EA0261F6
:1009F000826B9269114302689200A2F1C042C2F870
:100A0000041107E06FF0704201688900A1F1C04154
:100A1000C1F804217047000010B5054B002204E026
:100A20001C680460001D1B1D521C8A42F8D310BDB7
:100A300000000E082DE9F04105460C46184F4FF016
:100A4000090804F0030008B9A60802E0012000EB41
:100A50009406FFF72FFF0020FFF77AFE02215820AF
:100A6000FFF788FE8046B8F1090F02D00020BDE8EC
:100A7000F08109E038462968FFF7F4FE092801D023
:100A80000020F4E73F1D2D1D301EA6F10106F1D117
:100A90000120FFF75DFEFFF7DBFE0120E7E7000026
:100AA00000000E08F0B50A4600210023002400BF14
:100AB0003DE0012505FA01F3156805EA03049C42AF
:100AC00034D105684F000326BE40B5430560157953
:100AD0004E00B5400668354305601579012D02D0FA
:100AE0001579022D16D185684F000326BE40B54307
:100AF000856055794E00B540866835438560456808
:100B000001268E40B5434560456896798E40B6B261
:100B100035434560C5684F000326BE40B543C560F8
:100B2000D5794E00B540C6683543C560491C1029CB
:100B3000BFD3F0BDF0B5002300244D07ED0E02FA3F
:100B400005F3CE1000F1200555F826504E07F70E9C
:100B50000F26BE40B543CF1000F1200646F82750BF
:100B6000CE1000F1200555F8265045EA0304CE10BA
:100B700000F1200545F82640F0BD41837047018310
:100B8000704742694A404261704700BFFEE700007B
:100B90004CF6CC400149086070470000003000402E
:100BA00070B505460C4645F2555000F01FF8284632
:100BB00000F010F8204600F013F800F003F8FFF7FB
:100BC000E7FF70BD4AF6AA2001490860704700009F
:100BD000003000400149486070470000003000408C
:100BE00001498860704700000030004001490860FA
:100BF000704700000030004000BFFEE77047000073
:100C000070B5002100230F22C4781CB3174C246850
:100C100004F4E064C4F5E064C4F30721C1F1040402
:100C2000E3B20A4144789C40E1B284781440214305
:100C30000C07210E0E4C05786155047804F01F0551
:100C40000124AC4005786D11AD0005F1E025C5F833
:100C5000004109E0047804F01F050124AC40054D73
:100C60000678761145F8264070BD00000CED00E0D6
:100C700000E400E080E100E002490143024A116023
:100C8000704700000000FA050CED00E0704700001E
:100C900029B1064A12680243044B1A6004E0034A71
:100CA00012688243014B1A607047000030380240DE
:100CB00029B1064A12680243044B1A6004E0034A51
:100CC00012688243014B1A607047000038380240B6
:100CD00029B1064A12680243044B1A6004E0034A31
:100CE00012688243014B1A6070470000403802408E
:100CF00029B1064A12680243044B1A6004E0034A11
:100D000012688243014B1A60704700004438024069
:100D100021B1028842F40052028004E002884DF6BC
:100D2000FF731A400280704721B1028842F04002EE
:100D3000028004E002884FF6BF731A4002807047B9
:100D40001AB183880B43838002E083888B438380BE
:100D5000704710B50022028802F441520B884C887B
:100D600023438C882343CC8823430C8923434C8919
:100D700023438C892343CC8923431A430280838BEA
:100D80004FF2FF74234083830B8A038210BD7047A8
:100D900030B500228B071C0F0F2303FA04F20B4B14
:100DA0008C1053F824309343084C8D1044F82530B0
:100DB00023468C1053F824308C07240F00FA04F4D7
:100DC0002343024C8D1044F8253030BD08380140D3
:100DD0000CB50020019000903448006840F4803049
:100DE0003249086000BF3148006800F400300090CC
:100DF0000198401C0190009818B90198B0F5A04FD7
:100E0000F1D12A48006800F4003010B101200090B0
:100E100001E0002000900098012846D1234840308E
:100E2000006840F080502149403108602048006847
:100E300040F440401E4908601C48083000681B49C7
:100E4000083108600846006840F400400860084621
:100E5000006840F4A05008601648091F0860081F89
:100E6000006840F08070091F086000BF0F480068EC
:100E700000F000700028F9D040F205700E490860BB
:100E80000A480830006820F003000849083108606B
:100E90000846006840F00200086000BF03480830C0
:100EA000006800F00C000828F8D10CBD00380240A2
:100EB0000070004008514007003C0240042808D15F
:100EC0004FF0E021096941F004014FF0E022116187
:100ED00007E04FF0E021096921F004014FF0E02222
:100EE000116170477047000010B51548006840F464
:100EF0007000134908601348006840F00100114970
:100F0000086000200F49083108600E4800680E494B
:100F100008400C4908600D48091D0860081F00685A
:100F200020F48020091F0860002006490C31086069
:100F3000FFF74EFF4FF0006001498039086010BD97
:100F400088ED00E000380240FFFFF6FE103000247C
:100F500010B50121074800F02CF8012804D10648FB
:100F60000068401C044908600121024800F012F8A2
:100F700010BD0000000400402800002021B10288BC
:100F800042F08002028004E002884FF67F731A402C
:100F900002807047CA430282704721B1028842F042
:100FA0000102028004E002884FF6FE731A400280BC
:100FB000704730B50246002000230024158A05EA58
:100FC0000103958905EA010413B10CB1012000E089
:100FD000002030BD1AB183890B43838102E08389ED
:100FE0008B4383817047000070B5002400220023EA
:100FF000058C4FF6FE7635400584028C8388048B81
:101000004FF68F752C40B51E2C400D882C43751E55
:101010002A408D892A434D882A43104DA84202D088
:101020000F4DA84213D14FF6F7752A40CD892A43B8
:101030004FF6FB752A408D882A434FF6FF652B40FB
:101040004FF6FF552B400D8A2B434D8A2B4383804F
:1010500004838D684563028470BD00000000014078
:10106000000401400A460021018B4FF6F773194036
:10107000114301837047000000220288184B9842F8
:101080000ED0184B98420BD0B0F1804F08D0164BC1
:10109000984205D0154B984202D0154B984204D186
:1010A0004FF68F731A404B881A43124B984207D061
:1010B000114B984204D04FF6FF431A400B891A4354
:1010C00002804B68C3620B880385054B984202D0AF
:1010D000044B984201D18B7A0386012383827047A7
:1010E00000000140000401400004004000080040EE
:1010F000000C0040001000400014004000BFFEE75C
:1011000010B504460321601C01F026F910BD10B58E
:101110000446204600F014F80020FFF7F1FF01F02C
:1011200077FC01F0FFF801F059FC01F025FA01F01D
:1011300097FA00F043FD00F0B7FC00F0C7FF10BDC8
:101140001CB5044601210220FFF7A2FDC4B94FF4EB
:101150000060009001208DF8040000208DF806004A
:1011600003208DF8050001208DF807006946184816
:10117000FFF798FC4FF400611548FFF7FEFC26E0EE
:10118000012C16D1E002009001208DF8040000200F
:101190008DF8060003208DF8050001208DF807006A
:1011A00069460B48FFF77EFCE1020948FFF7E7FCC0
:1011B0000DE07A2C0BD14FF40060009000208DF8E8
:1011C00004008DF8070069460148FFF76BFC1CBD61
:1011D00000040240F0B504460B46002500224DE015
:1011E0000021002630E0012C06D0022C0DD0032C6B
:1011F00014D0042C24D11AE022480079214FFF7822
:1012000040EA072000B201441CE01E4840781D4F10
:101210003F7840EA072000B2014413E01A48007901
:10122000194FFF7840EA072000B201440AE016484F
:101230004078154F3F7840EA072000B2014401E0B2
:101240000020F0BD00BF761CB6F57A7FCBD94FF4F5
:101250007A7091FBF0F002B2A81A984204DAA81A48
:101260005F42B84200DD0AE015460020074F3860B3
:1012700000BF06480068B0F57A7FFAD9B0E700BF32
:101280001046DEE70800002014000020280000209F
:1012900010B50446012C07D140210C48FFF76FFC24
:1012A000012000F0A7FF0FE03CB940210748FFF7FD
:1012B00064FC002000F09EFF06E040210348FFF799
:1012C0005CFC002000F096FF10BD00000010024002
:1012D0001CB501211020FFF7DBFC4020009001200D
:1012E0008DF8040000208DF8060003208DF805001D
:1012F00001208DF8070069460648FFF7D3FB064832
:10130000007D18B10120FFF7C3FF02E00020FFF7C6
:10131000BFFF1CBD00100240DC13002038B50122C5
:1013200040F20921684601F059FC9DF80000172899
:1013300001D0022038BDC948C94908604420096865
:101340000870C7480068401CC5490860412009680A
:101350000870C3480068401CC149086054200968EF
:101360000870BF480068401CBD490860BD4800883F
:10137000001209680870BA480068401CB849086043
:10138000B848007809680870B5480068401CB4493E
:101390000860B4480088401CB2490880B249097806
:1013A000491CB24A92FBF1F14FF4FA7291FBF2F050
:1013B00000EBD071AB4A1288B2EB610F02D100F0A2
:1013C00057FF12E0A8480078401CA84991FBF0F0B4
:1013D0004FF4FA7190FBF1F0A2490988884204DACF
:1013E00000F046FF01209F49088000BFA048006828
:1013F000B0F57A7FFAD900241DE09E480068407855
:101400009C490968097840EA01209B498989401A6A
:1014100005B2280A924909680870914909684D7017
:1014200094480068801C934908608D480068801CBF
:101430008B490860641CB4F5FA7FDED38D480068E0
:101440008E49401A8E49884202DB8C4889490860DF
:1014500000241DE08B48006840788A4909680978B3
:1014600040EA01208449C989401A05B2280A7C490A
:10147000096808707A4909684D7082480068801CC4
:101480008049086076480068801C75490860641CC3
:10149000B4F5FA7FDED37B4800687B49401A78496F
:1014A000884202DB78487749086000241DE07748CD
:1014B0000068407875490968097840EA01206E495A
:1014C000098A401A05B2280A654909680870644902
:1014D00009684D706D480068801C6C490860604860
:1014E0000068801C5E490860641CB4F5FA7FDED396
:1014F000664800686649401A6149884202DB6448D0
:101500006249086000241DE0624800684078614933
:101510000968097840EA01205749498A401A05B20A
:10152000280A4F49096808704D4909684D705948A3
:101530000068801C5749086049480068801C484979
:101540000860641CB4F5FA7FDED352480068524943
:10155000401A4B49884202DB4F484E4908604448D4
:101560000068A0F57A704249086000203C4909688B
:1015700008703B480068401C394908600020096831
:10158000087037480068401C35490860002411E0A5
:10159000002033490968087031480068401C304910
:1015A00008600020096808702D480068401C2C491C
:1015B0000860641C062CEBD30020294909680870D8
:1015C00027480068401C2649086000200968087008
:1015D00023480068401C224908605F2009680870A1
:1015E0001F480068401C1E490860502009680870A8
:1015F0001B480068401C1A4908605320096808709D
:1016000017480068401C16490860412009680870A6
:1016100013480068401C1249086049200968087096
:101620000F480068401C0E490860084600780B49C6
:10163000401A00F0010040B15F20094909680870B4
:1016400007480068401C0649086005480068034ACE
:10165000811A104600F02CFF00206BE65400002099
:1016600034000020480000202C000020366E0100CD
:101670004C00002038000020DC130020000000682F
:1016800090D003003C00002090D003684000002070
:1016900020A1076844000020B0710B683EB500250A
:1016A00000BF38E0012240F2092102A801F096FAB9
:1016B0009DF80800172801D002203EBD00F0DBFE97
:1016C000044644B32146684600F0A4FE9DF800009D
:1016D000442820D19DF8010049281CD19DF8020022
:1016E000562818D19DF807009DF806100A4A505454
:1016F00041208DF8000043208DF801004B208DF82B
:1017000002000821684600F0D3FE681CC5B2042D13
:1017100001DB0020D1E7C5E72D00002010B586B021
:10172000D7E0012240F2092105A801F057FA9DF8FF
:101730001400172802D0022006B010BD00F09BFE56
:101740000446002CECD0214601A800F063FE9DF871
:101750000400492840D19DF8050050283CD19DF84F
:101760000600432838D19DF807005A4908709DF8B3
:10177000080048709DF8090088709DF80A00C8703C
:101780009DF80B0008719DF80C10524841719DF8AE
:101790000D1081719DF80E10C1719DF80F004D491B
:1017A00008729DF810104B4841729DF8111081721B
:1017B0009DF81210C17200F073FE41208DF80400F4
:1017C00043208DF805004B208DF80600102101A85C
:1017D00000F06EFE0120AFE79DF80400432830D1F1
:1017E0009DF8050041282CD19DF806004C2828D1F1
:1017F0000A210120FFF7EEFC364988810A210220E8
:10180000FFF7E8FC3349C8810A210320FFF7E2FC17
:10181000304908820A210420FFF7DCFC2D49488268
:1018200000F03EFE41208DF8040043208DF80500B5
:101830004B208DF80600082101A800F039FE012098
:101840007AE79DF8040043281CD19DF8050055282F
:1018500018D19DF80600522814D19DF80B001D499F
:10186000087500F01DFE41208DF8040043208DF81E
:1018700005004B208DF80600082101A800F018FE95
:10188000012059E79DF80400492822D19DF8050060
:101890004E281ED19DF8060054281AD141208DF8FB
:1018A000040043208DF805004B208DF80600012030
:1018B0008DF8080006208DF8090001208DF80A0037
:1018C00004208DF80B00082101A800F0F1FD002094
:1018D00032E726E7DC1300203EB536E0012240F275
:1018E000092102A801F07AF99DF80800172801D013
:1018F00002203EBD00F0BFFD044634B321466846D9
:1019000000F088FD9DF8000050281ED19DF80100D0
:1019100052281AD19DF80200452816D19DF80700DB
:101920000A49087008460078FFF7EAFB41208DF865
:10193000000043208DF801004B208DF802000821A3
:10194000684600F0B5FD0020D3E7C7E72C00002073
:101950003EB521E0012240F2092102A801F03EF942
:101960009DF80800172801D002203EBD00F083FD3D
:1019700004468CB12146684600F04CFD9DF80000FD
:10198000532809D19DF80100542805D19DF8020083
:10199000412801D10020E8E7DCE7000010B504464B
:1019A0006FF00400FFF78AFAE11704EB5171C1F3FD
:1019B000C701074A11701046007800EB4001C1EBE7
:1019C000C0104FF6FF7101EAC0000249088010BD47
:1019D000500000205200002070B504464FF40770FC
:1019E00094FBF0F0C6B24FF4077094FBF0F100FBEB
:1019F000114085B205E04FF4077000F02FF8701E1B
:101A0000C6B2002EF7D115B1284600F027F870BDF8
:101A10000146114A12784A434FF0E0235A610022EE
:101A20009A611A46126942F001021A6100BF4FF032
:101A3000E022106900F001021AB100F48032002A9D
:101A4000F5D04FF0E022126922F001024FF0E023BE
:101A50001A6100229A617047500000200146114A25
:101A600012884A434FF0E0235A6100229A611A46D5
:101A7000126942F001021A6100BF4FF0E0221069C2
:101A800000F001021AB100F48032002AF5D04FF0C4
:101A9000E022126922F001024FF0E0231A610022D5
:101AA0009A6170475200002000B591B001214805AD
:101AB000FFF7EEF83D48FEF745FC00BF3B48FEF758
:101AC000EDFC0028FAD1029039480390394804907F
:101AD0004020059006200690002007904FF480607B
:101AE0000890002009900A900B904FF440300C9021
:101AF00000200D9003200E9000200F90109002A95E
:101B00002A48FEF7F3FC0122022129480C38FFF78E
:101B100017F901214805FFF7BBF824481838FEF7EC
:101B200011FC00BF21481838FEF7B8FC0028F9D195
:101B300002901F4803902048049000200590062042
:101B40000690002007904FF48060089000200990D4
:101B50000A900B904FF440300C9000200D90032021
:101B60000E9000200F901090012210210F4818387D
:101B7000FEF79EFC02A90D481838FEF7B7FC0122BB
:101B800011460B480C38FFF7DBF80E208DF80400E7
:101B900001208DF8050003208DF8060001208DF846
:101BA000070001A8FFF72CF811B000BD70600240DB
:101BB0000C3800401A0000201400002000B591B03D
:101BC00001218805FFF764F83F48FEF7BBFB00BF23
:101BD0003D48FEF763FC0028FAD14FF0C060029048
:101BE0003A4803903A480490402005900620069019
:101BF000002007904FF480600890002009900A9020
:101C00000B904FF440300C9000200D9003200E906C
:101C100000200F90109002A92B48FEF767FC0122CC
:101C200002212A480C38FFF78BF801218805FFF7BD
:101C30002FF825481838FEF785FB00BF22481838D2
:101C4000FEF72CFC0028F9D14FF0C06002901F482D
:101C50000390204804900020059006200690002064
:101C600007904FF480600890002009900A900B9034
:101C70004FF440300C9000200D9003200E90002077
:101C80000F901090012210210F481838FEF710FC19
:101C900002A90D481838FEF729FC012211460B480D
:101CA0000C38FFF74DF83A208DF8040001208DF82C
:101CB000050002208DF8060001208DF8070001A81C
:101CC000FEF79EFF11B000BD586402400C30014089
:101CD0000E0000200800002000B599B001217820F6
:101CE000FEF7D6FF4FF63370179002208DF8600094
:101CF00000208DF8620003208DF8610001208DF82E
:101D0000630017A9AD48FEF7CDFE4FF6837017901C
:101D100002208DF8600000208DF8620003208DF80D
:101D2000610001208DF8630017A9A548FEF7BAFEEF
:101D30004FF23F00179002208DF8600000208DF8D0
:101D4000620003208DF8610001208DF8630017A95F
:101D50009C48FEF7A7FE40F23F20179002208DF826
:101D6000600000208DF8620003208DF861000120E2
:101D70008DF8630017A99448FEF794FE0C22002109
:101D80008E48FEF7D7FE0C2201218C48FEF7D2FECA
:101D90000C2204218948FEF7CDFE0C22052187483C
:101DA000FEF7C8FE0C2208218448FEF7C3FE0C2271
:101DB00009218248FEF7BEFE0C220A217F48FEF769
:101DC000B9FE0C220B217D48FEF7B4FE0C22114611
:101DD0007A48FEF7AFFE0C220D217848FEF7AAFEE6
:101DE0000C220E217548FEF7A5FE0C220F21734828
:101DF000FEF7A0FE0C2200217148FEF79BFE0C228C
:101E000001216F48FEF796FE0C2207216C48FEF771
:101E100091FE0C2208216A48FEF78CFE0C22092153
:101E20006748FEF787FE0C220A216548FEF782FE0E
:101E30000C220B216248FEF77DFE0C221146604801
:101E4000FEF778FE0C220D215D48FEF773FE0C2292
:101E50000E215B48FEF76EFE0C220F215848FEF75C
:101E600069FE0C2200215748FEF764FE0C22012176
:101E70005448FEF75FFE0C2202215248FEF75AFE3C
:101E80000C2203214F48FEF755FE0C2204214D4839
:101E9000FEF750FE0C2205214A48FEF74BFE0C22AD
:101EA00011464848FEF746FE0C220D214548FEF734
:101EB00041FE0C220E214348FEF73CFE0C220F216E
:101EC0004048FEF737FE0C2200213F48FEF732FE65
:101ED0000C2201213C48FEF72DFE0C2202213A483B
:101EE000FEF728FE0C2203213748FEF723FE0C22C2
:101EF00004213548FEF71EFE0C2205213248FEF76C
:101F000019FE0C2209213048FEF714FE0121084673
:101F1000FEF7CEFE0A200190002002900A200390D6
:101F20000020049005900690079002200890002061
:101F300009900A900B900C900E900D900F901090BD
:101F40004FF480501190002012901390149001A82B
:101F50001590169008A8FEF7EBFC01210220FEF771
:101F6000CDFC01210820FEF793FE082017900120E8
:101F70008DF8600000208DF8620003208DF861006C
:101F800001208DF8630017A90C48FEF78BFD08218E
:101F90000A48FEF7F4FD0A20FFF71EFD0821074856
:101FA000FEF7EBFD0A20FFF717FD08210348FEF7B7
:101FB000E6FD0A20FFF710FD19B000BD000C02403D
:101FC00000100240001402400018024008B53C48CE
:101FD000C0783C490870084600783B494871FFF7D3
:101FE0007BFE38208DF8000000208DF801000222D1
:101FF0000021684600F0FEFDFF208DF800008DF8FE
:10200000010002221146684600F0F4FD00208DF820
:1020100000008DF8010002220421684600F0EAFD6C
:1020200006220821284800F0E5FD0422102124485A
:10203000083000F0DFFD042214212148001D00F0CB
:10204000D9FD042218211E4800F0D4FD07208DF888
:102050000000D0208DF8010002221C21684600F00B
:10206000C9FD00208DF8000008208DF80100022233
:102070001E21684600F0BEFD20208DF800000122E0
:102080002021684600F0B6FD01222821684600F0B4
:10209000B1FD00208DF80000FF208DF80100022224
:1020A0003021684600F0A6FD53208DF80000002086
:1020B0008DF801000222FE21684600F09BFD08BD5C
:1020C000DC130020200000202100002000B585B096
:1020D00001211320FEF7DCFD1020009000208DF878
:1020E000040003208DF8050001208DF807006946E3
:1020F0003548FEF7D7FC4FF48050009000208DF853
:10210000040003208DF8050001208DF807006946C2
:102110002E48FEF7C7FC0420009000208DF8040034
:1021200003208DF8050001208DF807006946284836
:10213000FEF7B8FC01218803FEF7DAFD0421002038
:10214000FEF726FE0C210120FEF722FE02210420CC
:10215000FEF71EFE41F21400029000208DF80C00E4
:102160000C208DF80D0001208DF80E0002A8FEF75E
:10217000A5FA0A208DF8100000208DF811008DF8C6
:10218000120001208DF8130004A8FEF739FD282065
:102190008DF8100000208DF8110001208DF812003C
:1021A0008DF8130004A8FEF72BFD08208DF8100011
:1021B00001208DF811008DF812008DF8130004A88D
:1021C000FEF71EFD05B000BD000002400004024005
:1021D0000010024008B5012240F20921684600F0D3
:1021E000FDFC9DF80000172801D1012008BD00204A
:1021F000FCE7000010B5044624B120210448FEF796
:10220000BCFC03E020210248FEF7B9FC10BD000031
:10221000001002401CB501211020FEF739FD3820C6
:10222000009001208DF8040000208DF806000320A6
:102230008DF8050001208DF8070069460348FEF778
:1022400031FC38210148FEF79AFC1CBD0010024009
:1022500010B5044624B110210448FEF78EFC03E0BB
:1022600010210248FEF78BFC10BD00000010024058
:1022700010B508210148FEF784FC10BD0010024093
:102280004FF4A060FEF7F8FCA220FFF787FBA22026
:1022900000F06EFC00F050FA0020FEF738FFFFF768
:1022A000B9FF00F0AFF8FFF713F8FFF78FFE00F06B
:1022B000D1FB00BFFFF78EFF0028FBD00120FFF706
:1022C000C7FF2EE0FFF72AFA0446012C01D0022CAA
:1022D00001D100F0B9FBFFF7FFFA0446012C01D051
:1022E000022C01D100F0B0FBFFF7D8F90446012C15
:1022F00001D0022C01D100F0A7FBFFF729FB044617
:10230000012C01D0022C01D100F09EFB08E0FFF768
:1023100005F80446012C01D0022C01D100F094FBF9
:10232000F5E7CFE710B54FF400410A48FEF727FC68
:102330001420FFF751FB4FF400410648FEF71DFC47
:102340001420FFF749FB4FF400410248FEF717FC49
:1023500010BD00000004024030B58BB005460C46AD
:1023600001210846FEF794FC092207212348FEF7C5
:10237000E1FB8020099002208DF8280003208DF8D1
:10238000290000208DF82A0001208DF82B0009A9D2
:102390001A48FEF787FB01210802FEF799FC681E28
:1023A00080B2ADF818000020ADF81A00601E07904A
:1023B0000020ADF8200006A91148FEF75DFE602060
:1023C000ADF804000120ADF806000020ADF81000C3
:1023D000601E4008039001A90948FEF705FE082188
:1023E0000748FEF73FFE01210548FEF7C7FD012122
:1023F0000348FEF7D2FD0BB030BD000000000240E4
:102400000020004000B564210148FEF705FB00BD37
:10241000DC130020F8B507460D466808B5EB400F01
:102420000ED0681C4608002407E002224FF40C710D
:10243000384600F0D3FBBF1C641CB442F5D30CE05B
:102440006E08002407E002224FF40C71384600F0B9
:10245000C5FBBF1C641CB442F5D340200090012290
:1024600040F20321684600F0B9FB012251026846A0
:1024700000F0B4FBF8BD18B504224FF40A716846A9
:1024800000F0ACFB9DF80100C007C00B9DF80210E6
:1024900040EA01209DF8031040EA0104204618BDDF
:1024A00010B564210148FEF7C5FA10BDDC13002009
:1024B0002DE9F84107460C4600BF012240F20921F0
:1024C000684600F08BFB9DF80000172801D0BDE89E
:1024D000F88104224FF40971684600F07FFB9DF8F3
:1024E0000100C007C00B9DF8021040EA01209DF8D2
:1024F000031040EA0108A04500D2DEE76008B4EB13
:10250000400F0ED0601C4608002507E0022240F272
:102510002E21384600F06EFBBF1C6D1CB542F5D372
:102520000CE06608002507E0022240F22E21384622
:1025300000F060FBBF1C6D1CB542F5D300208DF888
:102540000000200C8DF80100200A8DF80200E0B296
:102550008DF8030004224FF40871684600F04AFB2E
:1025600020208DF80000012240F20321684600F08F
:1025700041FB00BFABE7000000B587B00121084672
:10258000FEF786FB6020059002208DF818000020E1
:102590008DF81A0003208DF8190001208DF81B001A
:1025A00005A91D48FEF77EFA052211461A48FEF7D6
:1025B000C1FA052206211848FEF7BCFA01210803DA
:1025C000FEF796FB0020ADF800004FF48270ADF8E6
:1025D00002000020ADF80400ADF80600ADF80800D8
:1025E0004FF40070ADF80A001020ADF80C00002088
:1025F000ADF80E000720ADF8100069460748FEF759
:10260000A8FB00210548FEF783FB01210348FEF7E4
:102610008BFB07B000BD000000000240003001400D
:102620004FF400100549086004483830006840F055
:102630000100024938310860704700000864024018
:102640004FF000600549086004485030006840F0D1
:1026500001000249503108607047000008640240E0
:1026600000B587B001210220FEF712FB4FF4C040F5
:10267000059002208DF8180000208DF81A00032024
:102680008DF8190001208DF81B0005A91C48FEF7E4
:1026900009FA05220D211A48FEF74CFA05220E21EF
:1026A0001748FEF747FA01218803FEF711FB0020C7
:1026B000ADF800004FF48270ADF802000020ADF8D4
:1026C0000400ADF80600ADF808004FF40070ADF856
:1026D0000A000820ADF80C000020ADF80E0007201D
:1026E000ADF8100069460748FEF733FB00210548A6
:1026F000FEF70EFB01210348FEF716FB07B000BDF5
:1027000000040240003800404FF000600349886038
:102710000846806D40F00100886570470060024007
:1027200020200449C8600846006F40F00100086797
:10273000704700000060024000B599B00121782088
:10274000FEF7A6FA4FF63370179002208DF860005E
:1027500000208DF8620003208DF8610001208DF8C3
:10276000630017A99948FEF79DF94FF683701790FB
:1027700002208DF8600000208DF8620003208DF8A3
:10278000610001208DF8630017A99148FEF78AF9CE
:102790004FF23F00179002208DF8600000208DF866
:1027A000620003208DF8610001208DF8630017A9F5
:1027B0008848FEF777F940F23F40179002208DF8E5
:1027C000600000208DF8620003208DF86100012078
:1027D0008DF8630017A98048FEF764F90C220021E8
:1027E0007A48FEF7A7F90C2201217848FEF7A2F9F2
:1027F0000C2204217548FEF79DF90C22052173482F
:10280000FEF798F90C2208217048FEF793F90C2284
:1028100009216E48FEF78EF90C220A216B48FEF75B
:1028200089F90C220B216948FEF784F90C22114624
:102830006648FEF77FF90C220D216448FEF77AF90D
:102840000C220E216148FEF775F90C220F215F481A
:10285000FEF770F90C2200215D48FEF76BF90C229F
:1028600001215B48FEF766F90C2207215848FEF764
:1028700061F90C2208215648FEF75CF90C22092167
:102880005348FEF757F90C220A215148FEF752F936
:102890000C220B214E48FEF74DF90C2211464C48F4
:1028A000FEF748F90C220D214948FEF743F90C22A6
:1028B0000E214748FEF73EF90C220F214448FEF74F
:1028C00039F90C2200214348FEF734F90C2201218A
:1028D0004048FEF72FF90C2202213E48FEF72AF964
:1028E0000C2203213B48FEF725F90C22042139482C
:1028F000FEF720F90C2205213648FEF71BF90C22C1
:1029000011463448FEF716F90C220D213148FEF726
:1029100011F90C220E212F48FEF70CF90C220F2181
:102920002C48FEF707F90C2200212B48FEF702F98C
:102930000C2201212848FEF7FDF80C22022126482E
:10294000FEF7F8F80C2203212348FEF7F3F80C22D7
:1029500004212148FEF7EEF80C2205211E48FEF75F
:10296000E9F80C220A211C48FEF7E4F80121084688
:10297000FEF79EF9012001900020029002200390B2
:1029800000200490059006900790042008900020F5
:1029900009900A9010200B9000200C900E900D9042
:1029A0000F9010904FF480501190002012901390CF
:1029B000149001A81590169008A8FDF7B9FF012101
:1029C0000420FDF79BFF19B000BD0000000C024081
:1029D00000100240001402400018024010B54FF4ED
:1029E00000410A48FEF7CBF81420FEF7F5FF4FF43C
:1029F00000410648FEF7C1F80120FFF709F84FF43F
:102A000000410248FEF7BBF810BD00000004024080
:102A10001CB501210220FEF73BF94FF40040009065
:102A200001208DF8040000208DF8060003208DF8A9
:102A3000050001208DF8070069460248FEF732F8CC
:102A40001CBD0000000402400A210120FEF7A8F886
:102A500000BFFEE708B500BF01208DF8000021206F
:102A60008DF8010002221102684600F0C3F8002030
:102A70008DF800008DF8000002224FF401716846C5
:102A800000F0B8F8FF208DF800008DF80000022259
:102A900040F20621684600F0ADF80F208DF80000E6
:102AA000324800788DF80100022240F20A2168467F
:102AB00000F0A0F805208DF80000B4208DF801008A
:102AC00002224FF40671684600F094F80A208DF84F
:102AD0000000012240F21A21684600F08BF8002025
:102AE0008DF8000080208DF80100022240F21E21A6
:102AF000684600F07FF801208DF80000012240F2C6
:102B00000321684600F076F8012240F20921684668
:102B100000F064F89DF80000132809D010208DF80B
:102B20000000012240F20321684600F063F893E7B9
:102B300002208DF80000012240F20321684600F0D7
:102B400059F8012240F20921684600F047F89DF843
:102B50000000142809D010208DF80000012240F256
:102B60000321684600F046F876E708BD2000002003
:102B70001FB5044601210220FEF7AAF840F2E73013
:102B80000290204604EBD0714910491C89B2ADF87F
:102B900004100020ADF80600ADF80C0001A90E48A5
:102BA000FEF76AFA012211460B48FEF713FA0121DB
:102BB0000948FEF7F2F91D208DF8000001208DF87C
:102BC000010003208DF8020001208DF80300684603
:102BD000FEF716F81FBD00000004004007E04FF0AC
:102BE000C8435B5C0370491C401C531EDAB2002AC8
:102BF000F5DC704710B507E004784FF0C8435C542B
:102C0000491C401C531EDAB2002AF5DC10BD4FF0FF
:102C10004070E1EE100A7047382C000800000020D8
:102C200054000000C40100088C2C0008540000204F
:102C30004C1A0000E0010008000000000000000045
:102C40000000000000000000000000000000000084
:102C50000000000000000000003C970EBDB5100011
:102C600000000000000000000000000054000020F0
:102C70000000006890D0036820A10768B0710B685D
:0C2C800000000000000000000000000048
:040000050800018965
:00000001FF
