:020000040800F2
:100000009806002029020008710800086908000805
:100010006D080008E3020008090D00080000000058
:10002000000000000000000000000000030A0008BB
:10003000450500080000000001090008590B0008F0
:10004000430200084302000843020008430200087C
:10005000430200084302000843020008430200086C
:1000600043020008430200088D050008430200080F
:100070004302000843020008E902000843020008A6
:10008000430200084302000843020008430200083C
:10009000430200084302000843020008430200082C
:1000A000430200084302000843020008430200081C
:1000B000430200084302000843020008430200080C
:1000C00043020008430200084302000843020008FC
:1000D00043020008430200084302000843020008EC
:1000E00049050008430200084302000843020008D3
:1000F00043020008430200084302000843020008CC
:1001000043020008430200084302000843020008BB
:1001100043020008430200084302000843020008AB
:100120004302000843020008FD02000843020008E1
:10013000430200084302000843020008430200088B
:10014000430200084302000843020008430200087B
:10015000430200084302000843020008430200086B
:10016000430200084302000843020008430200085B
:10017000430200084302000843020008430200084B
:10018000430200084302000800F002F800F03CF8C7
:100190000AA090E8000C82448344AAF10107DA45E2
:1001A00001D100F031F8AFF2090EBAE80F0013F0F8
:1001B000010F18BFFB1A43F001031847781A00001B
:1001C000981A0000103A24BF78C878C1FAD85207AC
:1001D00024BF30C830C144BF04680C6070470000C1
:1001E0000023002400250026103A28BF78C1FBD840
:1001F000520728BF30C148BF0B6070471FB501F0E0
:1002000014FD1FBD10B510BD00F031F81146FFF709
:10021000F5FF01F0F1F900F04FF803B4FFF7F2FF3A
:1002200003BC00F057F80000094880470948004720
:10023000FEE7FEE7FEE7FEE7FEE7FEE7FEE7FEE796
:10024000FEE7FEE704480549054A064B70470000F3
:100250005D0B000889010008980000209806002026
:10026000980200209802002070477047704775463A
:1002700000F02CF8AE4605006946534620F0070012
:10028000854618B020B5FFF7DDFFBDE820404FF0F0
:1002900000064FF000074FF000084FF0000B21F070
:1002A0000701AC46ACE8C009ACE8C009ACE8C0093D
:1002B000ACE8C0098D46704710B50446AFF3008026
:1002C0002046BDE81040FFF7A8BF00000048704777
:1002D0003800002001491820ABBEFEE726000200CE
:1002E000704700BFFEE7000010B54FF0C051024854
:1002F00000F00EF810BD00005860024010B54FF03D
:100300008151024800F004F810BD00004064024032
:100310000246094B9A4201D2084801E006481038CB
:1003200001F000531BB1064B0B40C36002E0044BCD
:100330000B40836070470000106402400060024080
:100340007D0F7D0F016821F0010101600021016036
:1003500041608160C1600161212141614A49884257
:1003600004D13D21484A103A91608CE04649183149
:10037000884205D14FF47461434A103A916082E09B
:1003800041493031884205D14FF474113E4A103A48
:10039000916078E03C494831884205D14FF0746162
:1003A000394A103A91606EE037496031884204D191
:1003B0003649354A103AD16065E033497831884290
:1003C00004D13349304A103AD1605CE02E49903173
:1003D000884204D12F492C4A103AD16053E02A496F
:1003E000A831884205D14FF03D51274A103AD160DB
:1003F00049E02949884204D13D21274A083A116041
:1004000041E025491831884205D14FF47461224AF0
:10041000083A116037E020493031884205D14FF465
:1004200074111D4A083A11602DE01B494831884279
:1004300005D14FF07461184A083A116023E016495B
:100440006031884204D11149134A121F11601AE029
:1004500011497831884204D10D490F4A121F1160A9
:1004600011E00D499031884204D10A490A4A121F0D
:10047000116008E00849A831884204D14FF03D518D
:10048000054A121F11607047106002403D000020B5
:10049000400F002000003D20106402400146002073
:1004A0000A6802F001020AB1012000E00020704752
:1004B00010B501F080034BB122B1436943F08003D2
:1004C000436103E0436923F08003436180290BD03B
:1004D0002AB1036801F01E042343036004E00368AB
:1004E00001F01E04A343036010BD000010B50022FC
:1004F0000268134B1A40CC680B6823434C692343B2
:100500008C692343CC6923430C6A23434C6A2343FD
:100510008C6A23434C6B23438C6B23431A43026046
:10052000426922F00702D1E90B3423431A434261A6
:100530000B6943604B6883608B68C36010BD00002B
:100540003F801CF07047000010B501F0B5F901F0D4
:10055000BFF90B4840780A49097840EA012000B207
:1005600008490880064800790549C97840EA012011
:1005700000B2054908804FF4805000F029F810BD02
:100580000C0000201C0000201E00002010B501F00F
:100590001FF901F02DF90B4840780A49097840EA23
:1005A000012000B208490880064800790549C97849
:1005B00040EA012000B205490880102000F008F848
:1005C00010BD000000000020180000201A000020CC
:1005D0000149086070470000143C01400021234994
:1005E0008279002A3AD00A46126803689A430B4679
:1005F0001A600A1D126803689A430B1D1A6002797B
:1006000011440A6803681A430A60184A08321268DB
:1006100003689A43154B08331A601A1D1268036861
:100620009A43124B0C331A604279102A0ED11A1FCA
:10063000126803681A430D4B08331A601A1D1268BA
:1006400003681A43094B0C331A600DE007494279DD
:1006500011440A6803681A430A6005E002791144EC
:100660000A6803689A430A6070470000003C014032
:1006700051B18200A2F1C042126842F0010382002F
:10068000A2F1C042136009E08200A2F1C0421268E8
:10069000034B1A408300A3F1C0431A607047000067
:1006A000FEFF0F00D0E901121143C2681143026935
:1006B00011434269114382691143C2691143026ABD
:1006C0001143426A1143826A1143C26A1143026BA9
:1006D000114302689200A2F1C042116081680829AA
:1006E0000BD101688900A1F1C041096841F04002C5
:1006F00001688900A1F1C0410A60416B0968426B41
:10070000526841EA0211426B926841EA0221426B4F
:10071000928941EA0241426B128A41EA0251426BDC
:10072000127D41EA0261426B926911430268521CD8
:100730009200A2F1C0421160C16AB1F5804F1BD195
:10074000816B0968826B526841EA0211826B926880
:1007500041EA0221826B128A41EA0251826B127DC8
:1007600041EA0261826B9269114302689200A2F130
:10077000C042C2F8041107E06FF0704201688900BE
:10078000A1F1C041C1F804217047F0B50A4600212B
:100790000023002400BF3DE0012505FA01F31568A0
:1007A00005EA03049C4234D105684F000326BE408D
:1007B000B543056015794E00B540066835430560C0
:1007C0001579012D02D01579022D16D185684F00BB
:1007D0000326BE40B543856055794E00B540866816
:1007E00035438560456801268E40B54345604568C0
:1007F00096798E40B6B235434560C5684F000326F2
:10080000BE40B543C560D5794E00B540C668354396
:10081000C560491C1029BFD3F0BDF0B500230024EA
:100820004D07ED0E02FA05F3CE1000F1200555F844
:1008300026504E07F70E0F26BE40B543CF1000F1ED
:10084000200646F82750CE1000F1200555F8265016
:1008500045EA0304CE1000F1200545F82640F0BD1E
:10086000418370470183704700BFFEE700BFFEE78A
:100870007047000070B5002100230F22C4781CB31C
:10088000174C246804F4E064C4F5E064C4F3072161
:10089000C1F10404E3B20A4144789C40E1B2847897
:1008A000144021430C07210E0E4C05786155047845
:1008B00004F01F050124AC4005786D11AD0005F171
:1008C000E025C5F8004109E0047804F01F05012483
:1008D000AC40054D0678761145F8264070BD000005
:1008E0000CED00E000E400E080E100E0024901439B
:1008F000024A1160704700000000FA050CED00E0AC
:100900007047000029B1064A12680243044B1A607E
:1009100004E0034A12688243014B1A6070470000EA
:100920003038024029B1064A12680243044B1A606B
:1009300004E0034A12688243014B1A6070470000CA
:100940003838024029B1064A12680243044B1A6043
:1009500004E0034A12688243014B1A6070470000AA
:100960004038024029B1064A12680243044B1A601B
:1009700004E0034A12688243014B1A60704700008A
:100980004438024021B1028842F40052028004E05F
:1009900002884DF6FF731A400280704721B1028829
:1009A00042F04002028004E002884FF6BF731A4012
:1009B000028070471AB183880B43838002E08388EA
:1009C0008B438380704710B50022028802F44152A5
:1009D0000B884C8823438C882343CC8823430C8981
:1009E00023434C8923438C892343CC8923431A43D3
:1009F0000280838B4FF2FF74234083830B8A038230
:100A000010BD704730B500228B071C0F0F2303FA6F
:100A100004F20B4B8C1053F824309343084C8D1088
:100A200044F8253023468C1053F824308C07240FCB
:100A300000FA04F42343024C8D1044F8253030BDF5
:100A4000083801400CB5002001900090344800683F
:100A500040F480303249086000BF3148006800F43B
:100A6000003000900198401C0190009818B901983E
:100A7000B0F5A04FF1D12A48006800F4003010B161
:100A80000120009001E0002000900098012846D14C
:100A900023484030006840F08050214940310860D0
:100AA0002048006840F440401E4908601C48083057
:100AB00000681B49083108600846006840F400409F
:100AC00008600846006840F4A05008601648091FF6
:100AD0000860081F006840F08070091F086000BFB0
:100AE0000F48006800F000700028F9D040F205704F
:100AF0000E4908600A480830006820F003000849E1
:100B0000083108600846006840F00200086000BF35
:100B100003480830006800F00C000828F8D10CBD2C
:100B2000003802400070004008544007003C02407A
:100B3000042808D14FF0E021096941F004014FF089
:100B4000E022116107E04FF0E021096921F0040182
:100B50004FF0E022116170477047000010B5154852
:100B6000006840F47000134908601348006840F0C2
:100B700001001149086000200F49083108600E4843
:100B800000680E4908400C4908600D48091D0860BE
:100B9000081F006820F48020091F08600020064913
:100BA0000C310860FFF74EFF4FF0006001498039BB
:100BB000086010BD88ED00E000380240FFFFF6FE3F
:100BC0001030002421B1028842F08002028004E04B
:100BD00002884FF67F731A400280704721B1028865
:100BE00042F00102028004E002884FF6FE731A40D0
:100BF0000280704770B5002400220023058C4FF658
:100C0000FE7635400584028C8388048B4FF68F7501
:100C10002C40B51E2C400D882C43751E2A408D8912
:100C20002A434D882A43104DA84202D00F4DA842B6
:100C300013D14FF6F7752A40CD892A434FF6FB753D
:100C40002A408D882A434FF6FF652B404FF6FF550B
:100C50002B400D8A2B434D8A2B43838004838D6860
:100C60004563028470BD00000000014000040140A3
:100C70000A460021018B4FF6F77319401143018397
:100C80007047000000220288184B98420ED0184B83
:100C900098420BD0B0F1804F08D0164B984205D047
:100CA000154B984202D0154B984204D14FF68F73E2
:100CB0001A404B881A43124B984207D0114B984266
:100CC00004D04FF6FF431A400B891A4302804B6849
:100CD000C3620B880385054B984202D0044B9842AF
:100CE00001D18B7A03860123838270470000014083
:100CF000000401400004004000080040000C0040D7
:100D0000001000400014004000BFFEE710B50421B1
:100D1000012000F0B3FC00F053FF00F095FC00F060
:100D200035FF00F001FD00F073FD00F015F900F053
:100D300089F800F0C1FB10BD10B504466FF0040047
:100D4000FFF7F6FEE11704EB5171C1F3C701074A43
:100D500011701046007800EB4001C1EBC0104FF657
:100D6000FF7101EAC0000249088010BD3200002076
:100D70003400002070B504464FF4077094FBF0F087
:100D8000C6B24FF4077094FBF0F100FB114085B23E
:100D900005E04FF4077000F02FF8701EC6B2002E69
:100DA000F7D115B1284600F027F870BD0146114A69
:100DB00012784A434FF0E0235A6100229A611A46A2
:100DC000126942F001021A6100BF4FF0E02210697F
:100DD00000F001021AB100F48032002AF5D04FF081
:100DE000E022126922F001024FF0E0231A61002292
:100DF0009A617047320000200146114A12884A4326
:100E00004FF0E0235A6100229A611A46126942F0BB
:100E100001021A6100BF4FF0E022106900F00102E8
:100E20001AB100F48032002AF5D04FF0E0221269A6
:100E300022F001024FF0E0231A6100229A6170470C
:100E40003400002000B591B001214805FFF75AFD9C
:100E50003D48FFF777FA00BF3B48FFF71FFB00282C
:100E6000FAD1029039480390394804904020059007
:100E700006200690002007904FF480600890002024
:100E800009900A900B904FF440300C9000200D9088
:100E900003200E9000200F90109002A92A48FFF71F
:100EA00025FB0122022129480C38FFF783FD01218F
:100EB0004805FFF727FD24481838FFF743FA00BF1D
:100EC00021481838FFF7EAFA0028F9D102901F48A4
:100ED00003902048049000200590062006900020F2
:100EE00007904FF480600890002009900A900B90C2
:100EF0004FF440300C9000200D9003200E90002005
:100F00000F901090012210210F481838FFF7D0FAE7
:100F100002A90D481838FFF7E9FA012211460B48DB
:100F20000C38FFF747FD0E208DF8040001208DF8E6
:100F3000050003208DF8060001208DF8070001A8A8
:100F4000FFF798FC11B000BD706002400C38004003
:100F5000120000200C00002000B591B0012188058E
:100F6000FFF7D0FC3F48FFF7EDF900BF3D48FFF722
:100F700095FA0028FAD14FF0C06002903A480390E9
:100F80003A480490402005900620069000200790E3
:100F90004FF480600890002009900A900B904FF465
:100FA00040300C9000200D9003200E9000200F90F8
:100FB000109002A92B48FFF799FA012202212A4832
:100FC0000C38FFF7F7FC01218805FFF79BFC25484B
:100FD0001838FFF7B7F900BF22481838FFF75EFA54
:100FE0000028F9D14FF0C06002901F4803902048BC
:100FF00004900020059006200690002007904FF4F2
:1010000080600890002009900A900B904FF44030C7
:101010000C9000200D9003200E9000200F90109057
:10102000012210210F481838FFF742FA02A90D4893
:101030001838FFF75BFA012211460B480C38FFF70E
:10104000B9FC3A208DF8040001208DF8050002203B
:101050008DF8060001208DF8070001A8FFF70AFCB3
:1010600011B000BD586402400C3001400600002061
:101070000000002000B599B001217820FFF742FC64
:101080004FF63370179002208DF8600000208DF825
:10109000620003208DF8610001208DF8630017A91C
:1010A000A348FFF772FB4FF68370179002208DF86C
:1010B000600000208DF8620003208DF8610001209F
:1010C0008DF8630017A99B48FFF75FFB4FF23F00C5
:1010D000179002208DF8600000208DF86200032038
:1010E0008DF8610001208DF8630017A99248FFF781
:1010F0004CFB40F23F20179002208DF8600000204A
:101100008DF8620003208DF8610001208DF86300E6
:1011100017A98A48FFF739FB0C2200218448FFF702
:101120007CFB0C2201218248FFF777FB0C22042173
:101130007F48FFF772FB0C2205217D48FFF76DFB0E
:101140000C2208217A48FFF768FB0C220921784815
:10115000FFF763FB0C220A217548FFF75EFB0C22A8
:101160000B217348FFF759FB0C2211467048FFF71B
:1011700054FB0C220D216E48FFF74FFB0C220E2171
:101180006B48FFF74AFB0C220F216948FFF745FB2C
:101190000C2200216748FFF740FB0C220121654823
:1011A000FFF73BFB0C2207216248FFF736FB0C22BE
:1011B00008216048FFF731FB0C2209215D48FFF749
:1011C0002CFB0C220A215B48FFF727FB0C220B218A
:1011D0005848FFF722FB0C2211465648FFF71DFB2B
:1011E0000C220D215348FFF718FB0C220E21514809
:1011F000FFF713FB0C220F214E48FFF70EFB0C22CA
:1012000000214D48FFF709FB0C2201214A48FFF756
:1012100004FB0C2202214848FFF7FFFA0C220321AD
:101220004548FFF7FAFA0C2204214348FFF7F5FA84
:101230000C2205214048FFF7F0FA0C2211463E48E7
:10124000FFF7EBFA0C220D213B48FFF7E6FA0C22E0
:101250000E213948FFF7E1FA0C220F213648FFF73B
:10126000DCFA0C2200213548FFF7D7FA0C220121C5
:101270003248FFF7D2FA0C2202213048FFF7CDFAAC
:101280000C2203212D48FFF7C8FA0C2204212B4819
:10129000FFF7C3FA0C2205212848FFF7BEFA0C22FB
:1012A00009212648FFF7B9FA01210846FFF73AFB62
:1012B0000A200190002002900A2003900020049050
:1012C00005900690079002200890002009900A904F
:1012D0000B900C900E900D900F9010904FF480504A
:1012E0001190002012901390149001A81590169060
:1012F00008A8FFF7D7F901210220FFF7B9F901216A
:101300000820FFF7FFFA0820179001208DF86000F1
:1013100000208DF8620003208DF8610001208DF817
:10132000630017A90248FFF730FA19B000BD0000AA
:10133000000C02400010024000140240001802405D
:1013400000B587B052A00068069052A000680590D2
:1013500051A103C9CDE9030151A000680290FFF734
:1013600089FE08214F48FFF77DFA0A20FFF702FDAA
:1013700008214C48FFF774FA0120FFF7FBFC082115
:101380004848FFF76FFA0A20FFF7F4FC38208DF881
:10139000040000208DF805000222002101A800F0C1
:1013A00037FCFF208DF804008DF80500022211465D
:1013B00001A800F02DFC00208DF804008DF8050038
:1013C0000222042101A800F023FC0622082103A820
:1013D00000F01EFC0422102106A800F019FC0422D3
:1013E000142105A800F014FC0422182102A800F022
:1013F0000FFC07208DF80400D0208DF80500022294
:101400001C2101A800F004FC00208DF80400082035
:101410008DF8050002221E2101A800F0F9FB202012
:101420008DF804000122202101A800F0F1FB012227
:10143000282101A800F0ECFB00208DF80400FF201B
:101440008DF805000222302101A800F0E1FB5320B5
:101450008DF8040000208DF805000222FE2101A86D
:1014600000F0D6FB062208210F4800F0C5FB04223D
:1014700010210E4800F0C0FB042214210C4800F09B
:10148000BBFB042218210B4800F0B6FB07B000BDDF
:10149000C0A80101FFFFFF003C970EBDB510000082
:1014A000C0A80110000C02402800002020000020ED
:1014B000240000202E00002000B585B0012103206B
:1014C000FFF720FA1020009000208DF80400032080
:1014D0008DF8050001208DF8070069462548FFF7C3
:1014E00054F94FF48050009000208DF80400032040
:1014F0008DF8050001208DF8070069461E48FFF7AA
:1015000044F901218803FFF72DFA04210020FFF799
:1015100079FA0C210120FFF775FA41F210000290D0
:1015200000208DF80C000C208DF80D0001208DF8A6
:101530000E0002A8FFF752F80A208DF810000020D4
:101540008DF811008DF8120001208DF8130004A809
:10155000FFF790F928208DF8100000208DF8110079
:1015600001208DF812008DF8130004A8FFF782F90E
:1015700005B000BD000002400004024010B5044662
:1015800024B110210448FFF76BF903E01021024851
:10159000FFF768F910BD0000001002401CB50121E2
:1015A0001020FFF7AFF93820009001208DF80400DB
:1015B00000208DF8060003208DF8050001208DF82D
:1015C000070069460348FFF7E0F838210148FFF7B4
:1015D00047F91CBD0010024010B5044624B120217B
:1015E0000448FFF73DF903E020210248FFF73AF9EC
:1015F00010BD0000001002404FF4A060FFF776F924
:10160000A820FFF799FBFFF7C9FFFFF77FFB00F06A
:101610006BF9FFF795FE15E00020FFF7DDFF4FF4B3
:101620004870FFF7A7FB0120FFF7A8FF6420FFF732
:10163000A1FB0020FFF7A2FF0120FFF7CDFF6420F0
:10164000FFF798FBE8E7000010B54FF400410A48A7
:10165000FFF708F91420FFF78DFB4FF4004106480F
:10166000FFF7FEF81420FFF785FB4FF40041024816
:10167000FFF7F8F810BD00000004024030B58BB051
:1016800005460C4601210846FFF73CF909220721CF
:101690002348FFF7C2F88020099002208DF8280027
:1016A00003208DF8290000208DF82A0001208DF8F4
:1016B0002B0009A91A48FFF768F801210802FFF773
:1016C00041F9681E80B2ADF818000020ADF81A008C
:1016D000601E07900020ADF8200006A91148FFF712
:1016E000D1FA6020ADF804000120ADF8060000201A
:1016F000ADF81000601E4008039001A90948FFF7EB
:1017000079FA08210748FFF7B3FA01210548FFF7E6
:1017100059FA01210348FFF761FA0BB030BD000010
:10172000000002400020004000B587B001210846BB
:10173000FFF7E8F86020059002208DF818000020DF
:101740008DF81A0003208DF8190001208DF81B0078
:1017500005A91D48FFF719F8052211461A48FFF799
:101760005CF8052206211848FFF757F80121080305
:10177000FFF7F8F80020ADF800004FF48270ADF8E4
:1017800002000020ADF80400ADF80600ADF8080036
:101790004FF40070ADF80A001020ADF80C000020E6
:1017A000ADF80E000720ADF8100069460748FFF7B6
:1017B0000AF900210548FFF7E5F801210348FFF782
:1017C000EDF807B000BD000000000240003001400D
:1017D0004FF400100549086004483830006840F0B4
:1017E0000100024938310860704700000864024077
:1017F0004FF000600549086004485030006840F030
:10180000010002495031086070470000086402403E
:1018100000B587B001210220FFF774F84FF4C040F3
:10182000059002208DF8180000208DF81A00032082
:101830008DF8190001208DF81B0005A91C48FEF742
:10184000A4FF05220D211A48FEF7E7FF05220E210D
:101850001748FEF7E2FF01218803FFF773F8002025
:10186000ADF800004FF48270ADF802000020ADF832
:101870000400ADF80600ADF808004FF40070ADF8B4
:101880000A000820ADF80C000020ADF80E0007207B
:10189000ADF8100069460748FFF795F800210548A4
:1018A000FFF770F801210348FFF778F807B000BD93
:1018B00000040240003800404FF000600349886097
:1018C0000846806D40F00100886570470060024066
:1018D00020200449C8600846006F40F001000867F6
:1018E000704700000060024000B599B001217820E7
:1018F000FFF708F84FF63370179002208DF860005C
:1019000000208DF8620003208DF8610001208DF821
:10191000630017A99948FEF738FF4FF683701790B8
:1019200002208DF8600000208DF8620003208DF801
:10193000610001208DF8630017A99148FEF725FF8B
:101940004FF23F00179002208DF8600000208DF8C4
:10195000620003208DF8610001208DF8630017A953
:101960008848FEF712FF40F23F40179002208DF8A2
:10197000600000208DF8620003208DF861000120D6
:101980008DF8630017A98048FEF7FFFE0C220021A6
:101990007A48FEF742FF0C2201217848FEF73DFF0E
:1019A0000C2204217548FEF738FF0C2205217348EC
:1019B000FEF733FF0C2208217048FEF72EFF0C22A1
:1019C00009216E48FEF729FF0C220A216B48FEF719
:1019D00024FF0C220B216948FEF71FFF0C22114641
:1019E0006648FEF71AFF0C220D216448FEF715FF2A
:1019F0000C220E216148FEF710FF0C220F215F48D8
:101A0000FEF70BFF0C2200215D48FEF706FF0C22BB
:101A100001215B48FEF701FF0C2207215848FEF721
:101A2000FCFE0C2208215648FEF7F7FE0C22092185
:101A30005348FEF7F2FE0C220A215148FEF7EDFE54
:101A40000C220B214E48FEF7E8FE0C2211464C48B2
:101A5000FEF7E3FE0C220D214948FEF7DEFE0C22C4
:101A60000E214748FEF7D9FE0C220F214448FEF70D
:101A7000D4FE0C2200214348FEF7CFFE0C220121A8
:101A80004048FEF7CAFE0C2202213E48FEF7C5FE82
:101A90000C2203213B48FEF7C0FE0C2204213948EA
:101AA000FEF7BBFE0C2205213648FEF7B6FE0C22DF
:101AB00011463448FEF7B1FE0C220D213148FEF7E5
:101AC000ACFE0C220E212F48FEF7A7FE0C220F21A0
:101AD0002C48FEF7A2FE0C2200212B48FEF79DFEAB
:101AE0000C2201212848FEF798FE0C2202212648EC
:101AF000FEF793FE0C2203212348FEF78EFE0C22F4
:101B000004212148FEF789FE0C2205211E48FEF71C
:101B100084FE0C220A211C48FEF77FFE01210846A4
:101B2000FEF700FF012001900020029002200390A8
:101B30000020049005900690079004200890002053
:101B400009900A9010200B9000200C900E900D90A0
:101B50000F9010904FF4805011900020129013902D
:101B6000149001A81590169008A8FEF79BFD01217E
:101B70000420FEF77DFD19B000BD0000000C0240FE
:101B800000100240001402400018024010B54FF44B
:101B900000410A48FEF766FE1420FFF7EBF84FF409
:101BA00000410648FEF75CFE0120FFF7FFF84FF406
:101BB00000410248FEF756FE10BD0000000402403E
:101BC0001CB501210220FEF79DFE4FF4004000905D
:101BD00001208DF8040000208DF8060003208DF808
:101BE000050001208DF8070069460248FEF7CDFD8B
:101BF0001CBD00000004024007E04FF0C8435B5CDE
:101C00000370491C401C531EDAB2002AF5DC7047F1
:101C100010B507E004784FF0C8435C54491C401CE1
:101C2000531EDAB2002AF5DC10BD4FF04070E1EE31
:101C3000100A7047541C0008000000203800000003
:101C4000C40100088C1C0008380000206006000059
:101C5000E00100080000000000000000000000009B
:101C60000000000000000000000000000000000074
:101C700000000000C0A80101FFFFFF003C970EBD5F
:0C1C8000B510C0A801100000000000001A
:040000050800018965
:00000001FF
