:020000040800F2
:100000009006002029020008670700085F07000823
:1000100063070008E3020008DD0B00080000000091
:10002000000000000000000000000000D7080008E9
:100030005105000800000000F50700082D0A00081F
:10004000430200084302000843020008430200087C
:10005000430200084302000843020008430200086C
:10006000430200084302000891050008430200080B
:10007000430200084302000843020008430200084C
:10008000430200084302000843020008430200083C
:10009000430200084302000843020008430200082C
:1000A000430200084302000843020008430200081C
:1000B000430200084302000843020008430200080C
:1000C00043020008430200084302000843020008FC
:1000D00043020008430200084302000843020008EC
:1000E00055050008430200084302000843020008C7
:1000F00043020008430200084302000843020008CC
:1001000043020008430200084302000843020008BB
:1001100043020008430200084302000843020008AB
:100120004302000843020008E902000843020008F5
:10013000430200084302000843020008430200088B
:10014000430200084302000843020008430200087B
:10015000430200084302000843020008430200086B
:10016000430200084302000843020008430200085B
:10017000430200084302000843020008430200084B
:10018000430200084302000800F002F800F03CF8C7
:100190000AA090E8000C82448344AAF10107DA45E2
:1001A00001D100F031F8AFF2090EBAE80F0013F0F8
:1001B000010F18BFFB1A43F001031847E4100000B9
:1001C00004110000103A24BF78C878C1FAD8520749
:1001D00024BF30C830C144BF04680C6070470000C1
:1001E0000023002400250026103A28BF78C1FBD840
:1001F000520728BF30C148BF0B6070471FB501F0E0
:1002000049F81FBD10B510BD00F031F81146FFF7D9
:10021000F5FF00F0ABFE00F04FF803B4FFF7F2FF7C
:1002200003BC00F057F80000094880470948004720
:10023000FEE7FEE7FEE7FEE7FEE7FEE7FEE7FEE796
:10024000FEE7FEE704480549054A064B70470000F3
:10025000310A000889010008900000209006002063
:10026000900200209002002070477047704775464A
:1002700000F02CF8AE4605006946534620F0070012
:10028000854618B020B5FFF7DDFFBDE820404FF0F0
:1002900000064FF000074FF000084FF0000B21F070
:1002A0000701AC46ACE8C009ACE8C009ACE8C0093D
:1002B000ACE8C0098D46704710B50446AFF3008026
:1002C0002046BDE81040FFF7A8BF00000048704777
:1002D0003000002001491820ABBEFEE726000200D6
:1002E000704700BFFEE7000010B508480068401CDA
:1002F00006490860064800680968401A0549086010
:100300004FF08151044800F009F810BD240000208E
:100310002000002028000020406402400246094BD3
:100320009A4201D2084801E00648103801F0005313
:100330001BB1064B0B40C36002E0044B0B408360D3
:100340007047000010640240006002407D0F7D0F86
:10035000016821F0010101600021016041608160BC
:10036000C1600161212141614A49884204D13D2196
:10037000484A103A91608CE046491831884205D1CC
:100380004FF47461434A103A916082E04149303140
:10039000884205D14FF474113E4A103A916078E0DA
:1003A0003C494831884205D14FF07461394A103ACE
:1003B00091606EE037496031884204D13649354A50
:1003C000103AD16065E033497831884204D133492D
:1003D000304A103AD1605CE02E499031884204D115
:1003E0002F492C4A103AD16053E02A49A83188425B
:1003F00005D14FF03D51274A103AD16049E02949D3
:10040000884204D13D21274A083A116041E025493C
:100410001831884205D14FF47461224A083A1160BC
:1004200037E020493031884205D14FF474111D4A1C
:10043000083A11602DE01B494831884205D14FF040
:100440007461184A083A116023E016496031884205
:1004500004D11149134A121F11601AE01149783171
:10046000884204D10D490F4A121F116011E00D4955
:100470009031884204D10A490A4A121F116008E0EB
:100480000849A831884204D14FF03D51054A121F56
:1004900011607047106002403D000020400F0020B6
:1004A00000003D2010640240014600200A6802F06E
:1004B00001020AB1012000E00020704710B501F0F0
:1004C00080034BB122B1436943F08003436103E0F1
:1004D000436923F08003436180290BD02AB103686C
:1004E00001F01E042343036004E0036801F01E04CE
:1004F000A343036010BD000010B500220268134B37
:100500001A40CC680B6823434C6923438C6923430E
:10051000CC6923430C6A23434C6A23438C6A2343EC
:100520004C6B23438C6B23431A430260426922F0D5
:100530000702D1E90B3423431A4342610B6943603C
:100540004B6883608B68C36010BD00003F801CF067
:100550007047000010B50B4840780A49097840EA16
:10056000012000B208490880064800790549C97889
:1005700040EA012000B2054908804FF4805000F0A5
:100580002FF810BD0C0000201C0000201E000020D1
:1005900010B500F0D5FD00F0E3FD0D4840780C49A2
:1005A000097840EA012000B20A4908800848007929
:1005B0000749C97840EA012000B207490880074886
:1005C0000068401C05490860102000F009F810BDC3
:1005D00000000020180000201A0000202000002049
:1005E0000149086070470000143C01400021234984
:1005F0008279002A3AD00A46126803689A430B4669
:100600001A600A1D126803689A430B1D1A6002796A
:1006100011440A6803681A430A60184A08321268CB
:1006200003689A43154B08331A601A1D1268036851
:100630009A43124B0C331A604279102A0ED11A1FBA
:10064000126803681A430D4B08331A601A1D1268AA
:1006500003681A43094B0C331A600DE007494279CD
:1006600011440A6803681A430A6005E002791144DC
:100670000A6803689A430A6070470000003C014022
:10068000F0B50A4600210023002400BF3DE001250B
:1006900005FA01F3156805EA03049C4234D10568A4
:1006A0004F000326BE40B543056015794E00B540A6
:1006B0000668354305601579012D02D01579022DA4
:1006C00016D185684F000326BE40B5438560557935
:1006D0004E00B540866835438560456801268E40EA
:1006E000B5434560456896798E40B6B2354345605E
:1006F000C5684F000326BE40B543C560D5794E009E
:10070000B540C6683543C560491C1029BFD3F0BD4C
:10071000F0B5002300244D07ED0E02FA05F3CE10CC
:1007200000F1200555F826504E07F70E0F26BE4063
:10073000B543CF1000F1200646F82750CE1000F147
:10074000200555F8265045EA0304CE1000F1200597
:1007500045F82640F0BD418370470183704700BFD4
:10076000FEE700BFFEE7704770B5002100230F22AF
:10077000C4781CB3174C246804F4E064C4F5E06446
:10078000C4F30721C1F10404E3B20A4144789C4058
:10079000E1B28478144021430C07210E0E4C0578F9
:1007A0006155047804F01F050124AC4005786D11F3
:1007B000AD0005F1E025C5F8004109E0047804F03A
:1007C0001F050124AC40054D0678761145F82640FA
:1007D00070BD00000CED00E000E400E080E100E00E
:1007E00002490143024A1160704700000000FA0507
:1007F0000CED00E07047000029B1064A1268024380
:10080000044B1A6004E0034A12688243014B1A60E9
:10081000704700003038024029B1064A126802438E
:10082000044B1A6004E0034A12688243014B1A60C9
:10083000704700004038024029B1064A126802435E
:10084000044B1A6004E0034A12688243014B1A60A9
:10085000704700004438024021B1028842F400523F
:10086000028004E002884DF6FF731A400280704750
:1008700021B1028842F04002028004E002884FF673
:10088000BF731A40028070471AB183880B4383807C
:1008900002E083888B438380704710B50022028872
:1008A00002F441520B884C8823438C882343CC8824
:1008B00023430C8923434C8923438C892343CC89CC
:1008C00023431A430280838B4FF2FF7423408383B8
:1008D0000B8A038210BD704730B500228B071C0FB6
:1008E0000F2303FA04F20B4B8C1053F8243093437C
:1008F000084C8D1044F8253023468C1053F82430D2
:100900008C07240F00FA04F42343024C8D1044F8A2
:10091000253030BD083801400CB500200190009012
:100920003448006840F480303249086000BF3148E4
:10093000006800F4003000900198401C019000987D
:1009400018B90198B0F5A04FF1D12A48006800F419
:10095000003010B10120009001E0002000900098CC
:10096000012846D123484030006840F0805021499A
:10097000403108602048006840F440401E4908604B
:100980001C48083000681B490831086008460068A8
:1009900040F4004008600846006840F4A050086039
:1009A0001648091F0860081F006840F08070091F82
:1009B000086000BF0F48006800F000700028F9D000
:1009C00040F205700E4908600A480830006820F0BF
:1009D00003000849083108600846006840F002003A
:1009E000086000BF03480830006800F00C000828C9
:1009F000F8D10CBD00380240007000400854400798
:100A0000003C0240042808D14FF0E021096941F080
:100A100004014FF0E022116107E04FF0E021096985
:100A200021F004014FF0E02211617047704700008F
:100A300010B51548006840F4700013490860134869
:100A4000006840F001001149086000200F4908319A
:100A500008600E4800680E4908400C4908600D48BF
:100A6000091D0860081F006820F48020091F086025
:100A7000002006490C310860FFF74EFF4FF0006080
:100A800001498039086010BD88ED00E0003802405F
:100A9000FFFFF6FE1030002421B1028842F08002F0
:100AA000028004E002884FF67F731A40028070478C
:100AB00021B1028842F00102028004E002884FF670
:100AC000FE731A400280704770B500240022002394
:100AD000058C4FF6FE7635400584028C8388048BA6
:100AE0004FF68F752C40B51E2C400D882C43751E7B
:100AF0002A408D892A434D882A43104DA84202D0AE
:100B00000F4DA84213D14FF6F7752A40CD892A43DD
:100B10004FF6FB752A408D882A434FF6FF652B4020
:100B20004FF6FF552B400D8A2B434D8A2B43838074
:100B300004838D684563028470BD0000000001409D
:100B4000000401400A460021018B4FF6F77319405B
:100B5000114301837047000000220288184B98421D
:100B60000ED0184B98420BD0B0F1804F08D0164BE6
:100B7000984205D0154B984202D0154B984204D1AB
:100B80004FF68F731A404B881A43124B984207D086
:100B9000114B984204D04FF6FF431A400B891A4379
:100BA00002804B68C3620B880385054B984202D0D4
:100BB000044B984201D18B7A0386012383827047CC
:100BC0000000014000040140000400400008004013
:100BD000000C0040001000400014004000BFFEE781
:100BE00010B50421012000F001FA00F037FB00F0FD
:100BF000E3F900F019FB00F04FFA00F0C1FA00F041
:100C000087F810BD10B504466FF00400FFF7FAFE38
:100C1000E11704EB5171C1F3C701074A1170104687
:100C2000007800EB4001C1EBC0104FF6FF7101EA04
:100C3000C0000249088010BD2C0000202E000020BA
:100C400070B504464FF4077094FBF0F0C6B24FF451
:100C5000077094FBF0F100FB114085B205E04FF402
:100C6000077000F02FF8701EC6B2002EF7D115B134
:100C7000284600F027F870BD0146114A12784A4311
:100C80004FF0E0235A6100229A611A46126942F03D
:100C900001021A6100BF4FF0E022106900F001026A
:100CA0001AB100F48032002AF5D04FF0E022126928
:100CB00022F001024FF0E0231A6100229A6170478E
:100CC0002C0000200146114A12884A434FF0E023CD
:100CD0005A6100229A611A46126942F001021A61B1
:100CE00000BF4FF0E022106900F001021AB100F4D9
:100CF0008032002AF5D04FF0E022126922F0010282
:100D00004FF0E0231A6100229A6170472E00002004
:100D100000B591B001218805FFF76EFD3F48FFF750
:100D200017FB00BF3D48FFF7BFFB0028FAD14FF08B
:100D3000C06002903A4803903A48049040200590E1
:100D400006200690002007904FF480600890002055
:100D500009900A900B904FF440300C9000200D90B9
:100D600003200E9000200F90109002A92B48FFF74F
:100D7000C3FB012202212A480C38FFF785FD01211F
:100D80008805FFF739FD25481838FFF7E1FA00BF5D
:100D900022481838FFF788FB0028F9D14FF0C060CF
:100DA00002901F48039020480490002005900620E0
:100DB0000690002007904FF4806008900020099072
:100DC0000A900B904FF440300C9000200D900320BF
:100DD0000E9000200F901090012210210F4818381B
:100DE000FFF76CFB02A90D481838FFF785FB0122BD
:100DF00011460B480C38FFF747FD3A208DF80400E8
:100E000001208DF8050002208DF8060001208DF8E4
:100E1000070001A8FFF7A8FC11B000BD586402400C
:100E20000C300140060000200000002000B585B015
:100E300001210320FFF7E0FC1020009000208DF836
:100E4000040003208DF8050001208DF80700694695
:100E50002548FFF715FC4FF48050009000208DF8D6
:100E6000040003208DF8050001208DF80700694675
:100E70001E48FFF705FC01218803FFF7DDFC042174
:100E80000020FFF729FD0C210120FFF725FD41F28D
:100E90001000029000208DF80C000C208DF80D0041
:100EA00001208DF80E0002A8FFF7A0FB0A208DF8A4
:100EB000100000208DF811008DF8120001208DF82F
:100EC000130004A8FFF750FC28208DF81000002024
:100ED0008DF8110001208DF812008DF8130004A880
:100EE000FFF742FC05B000BD0000024000040240D4
:100EF00010B5044624B110210448FFF72CFC03E090
:100F000010210248FFF729FC10BD0000001002402C
:100F10001CB501211020FFF76FFC38200090012044
:100F20008DF8040000208DF8060003208DF80500E0
:100F300001208DF8070069460348FFF7A1FB38211F
:100F40000148FFF708FC1CBD0010024010B5044624
:100F500024B120210448FFF7FEFB03E020210248D2
:100F6000FFF7FBFB10BD0000001002404FF4A06033
:100F7000FFF736FCA820FFF745FEFFF7C9FFFFF794
:100F80002FFEFFF753FF15E00020FFF7DFFF4FF4C0
:100F90004870FFF755FE0120FFF7AAFF6420FFF716
:100FA0004FFE0020FFF7A4FF0120FFF7CFFF6420D2
:100FB000FFF746FEE8E7000010B54FF400410A488D
:100FC000FFF7CBFB1420FFF73BFE4FF40041064830
:100FD000FFF7C1FB1420FFF733FE4FF40041024836
:100FE000FFF7BBFB10BD00000004024030B58BB022
:100FF00005460C4601210846FFF7FEFB09220721A2
:101000002348FFF785FB8020099002208DF82800F7
:1010100003208DF8290000208DF82A0001208DF88A
:101020002B0009A91A48FFF72BFB01210802FFF743
:10103000F3FB681E80B2ADF818000020ADF81A006E
:10104000601E07900020ADF8200006A91148FFF7A8
:1010500083FD6020ADF804000120ADF806000020FB
:10106000ADF81000601E4008039001A90948FFF781
:101070002BFD08210748FFF765FD01210548FFF713
:101080000BFD01210348FFF713FD0BB030BD00003D
:10109000000002400020004000B587B00121084652
:1010A000FFF7AAFB6020059002208DF818000020B1
:1010B0008DF81A0003208DF8190001208DF81B000F
:1010C00005A91D48FFF7DCFA052211461A48FFF76B
:1010D0001FFB052206211848FFF71AFB0121080310
:1010E000FFF7AAFB0020ADF800004FF48270ADF8C6
:1010F00002000020ADF80400ADF80600ADF80800CD
:101100004FF40070ADF80A001020ADF80C0000207C
:10111000ADF80E000720ADF8100069460748FFF74C
:10112000BCFB00210548FFF797FB01210348FFF7AF
:101130009FFB07B000BD00000000024000300140EE
:101140004FF400100549086004483830006840F04A
:10115000010002493831086070470000086402400D
:101160004FF000600549086004485030006840F0C6
:1011700001000249503108607047000008640240D5
:1011800000B587B001210220FFF736FB4FF4C040C5
:10119000059002208DF8180000208DF81A00032019
:1011A0008DF8190001208DF81B0005A91C48FFF7D8
:1011B00067FA05220D211A48FFF7AAFA05220E2127
:1011C0001748FFF7A5FA01218803FFF735FB002038
:1011D000ADF800004FF48270ADF802000020ADF8C9
:1011E0000400ADF80600ADF808004FF40070ADF84B
:1011F0000A000820ADF80C000020ADF80E00072012
:10120000ADF8100069460748FFF747FB0021054885
:10121000FFF722FB01210348FFF72AFB07B000BDBF
:10122000000402400038004010B54FF400410A4865
:10123000FFF793FA1420FFF703FD4FF4004106482F
:10124000FFF789FA0120FFF717FD4FF4004102482C
:10125000FFF783FA10BD0000000402401CB5012115
:101260000220FFF7C9FA4FF40040009001208DF8EA
:10127000040000208DF8060003208DF805000120F1
:101280008DF8070069460248FFF7FAF91CBD000017
:10129000000402404FF04070E1EE100A7047000079
:1012A000C01200080000002030000000C401000847
:1012B000F01200083000002060060000E001000885
:1012C000000000000000000000000000000000001E
:1012D000000000000000000000000000000000000E
:1012E00000000000000000000000000000000000FE
:040000050800018965
:00000001FF
