:020000040800F2
:10000000381A002029020008F5080008ED08000849
:10001000F1080008E3020008F50D000800000000E8
:10002000000000000000000000000000870A000837
:10003000450500080000000085090008DD0B0008E8
:10004000430200084302000843020008430200087C
:10005000430200084302000843020008430200086C
:100060004302000843020008C105000843020008DB
:100070004302000843020008E902000843020008A6
:10008000430200084302000843020008430200083C
:10009000430200084302000843020008430200082C
:1000A000430200084302000843020008430200081C
:1000B00043020008490C00084302000843020008FC
:1000C00043020008430200084302000843020008FC
:1000D00043020008430200084302000843020008EC
:1000E00049050008430200084302000843020008D3
:1000F00043020008430200084302000843020008CC
:1001000043020008430200084302000843020008BB
:1001100043020008430200084302000843020008AB
:100120004302000843020008FD02000843020008E1
:10013000430200084302000843020008430200088B
:10014000430200084302000843020008430200087B
:10015000430200084302000843020008430200086B
:10016000430200084302000843020008430200085B
:10017000430200084302000843020008430200084B
:10018000430200084302000800F002F800F03CF8C7
:100190000AA090E8000C82448344AAF10107DA45E2
:1001A00001D100F031F8AFF2090EBAE80F0013F0F8
:1001B000010F18BFFB1A43F0010318478C220000FF
:1001C000AC220000103A24BF78C878C1FAD8520790
:1001D00024BF30C830C144BF04680C6070470000C1
:1001E0000023002400250026103A28BF78C1FBD840
:1001F000520728BF30C148BF0B6070471FB502F0DF
:100200001EF91FBD10B510BD00F031F81146FFF703
:10021000F5FF01F085FC00F04FF803B4FFF7F2FFA3
:1002200003BC00F057F80000094880470948004720
:10023000FEE7FEE7FEE7FEE7FEE7FEE7FEE7FEE796
:10024000FEE7FEE704480549054A064B70470000F3
:10025000E10B00088901000838140020381A00203A
:1002600038160020381600207047704770477546D2
:1002700000F02CF8AE4605006946534620F0070012
:10028000854618B020B5FFF7DDFFBDE820404FF0F0
:1002900000064FF000074FF000084FF0000B21F070
:1002A0000701AC46ACE8C009ACE8C009ACE8C0093D
:1002B000ACE8C0098D46704710B50446AFF3008026
:1002C0002046BDE81040FFF7A8BF00000048704777
:1002D000D413002001491820ABBEFEE7260002001F
:1002E000704700BFFEE7000010B54FF0C051024854
:1002F00000F00EF810BD00005860024010B54FF03D
:100300008151024800F004F810BD00004064024032
:100310000246094B9A4201D2084801E006481038CB
:1003200001F000531BB1064B0B40C36002E0044BCD
:100330000B40836070470000106402400060024080
:100340007D0F7D0F016821F0010101600021016036
:1003500041608160C1600161212141614A49884257
:1003600004D13D21484A103A91608CE04649183149
:10037000884205D14FF47461434A103A916082E09B
:1003800041493031884205D14FF474113E4A103A48
:10039000916078E03C494831884205D14FF0746162
:1003A000394A103A91606EE037496031884204D191
:1003B0003649354A103AD16065E033497831884290
:1003C00004D13349304A103AD1605CE02E49903173
:1003D000884204D12F492C4A103AD16053E02A496F
:1003E000A831884205D14FF03D51274A103AD160DB
:1003F00049E02949884204D13D21274A083A116041
:1004000041E025491831884205D14FF47461224AF0
:10041000083A116037E020493031884205D14FF465
:1004200074111D4A083A11602DE01B494831884279
:1004300005D14FF07461184A083A116023E016495B
:100440006031884204D11149134A121F11601AE029
:1004500011497831884204D10D490F4A121F1160A9
:1004600011E00D499031884204D10A490A4A121F0D
:10047000116008E00849A831884204D14FF03D518D
:10048000054A121F11607047106002403D000020B5
:10049000400F002000003D20106402400146002073
:1004A0000A6802F001020AB1012000E00020704752
:1004B00010B501F080034BB122B1436943F08003D2
:1004C000436103E0436923F08003436180290BD03B
:1004D0002AB1036801F01E042343036004E00368AB
:1004E00001F01E04A343036010BD000010B50022FC
:1004F0000268134B1A40CC680B6823434C692343B2
:100500008C692343CC6923430C6A23434C6A2343FD
:100510008C6A23434C6B23438C6B23431A43026046
:10052000426922F00702D1E90B3423431A434261A6
:100530000B6943604B6883608B68C36010BD00002B
:100540003F801CF07047000010B501F0FDFC01F089
:1005500007FD1648C1781648164A12688154134898
:100560000179134A13480068401C11540F48017860
:100570001148104A126881540C4841780E4A0D48BF
:100580000068401C11540B480068801C0949086031
:10059000084600680949884202D3002005490860DE
:1005A0004FF4805000F056F810BD000014000020F9
:1005B00020A1076804000020B0710B6890D00300F0
:1005C00010B501F04DFC01F05BFC1C48C1781C48E3
:1005D0001C4A1268815419480179194A194800685F
:1005E000401C1154154801781748164A1268815466
:1005F00012484178144A13480068401C11541148AD
:100600000068801C0F490860084600680F4988424E
:1006100002D300200B4908600D480068801C0C497B
:100620000860084600680949884202D3084608491C
:100630000860102000F00EF810BD00000800002037
:10064000000000680000002090D0036890D00300F4
:10065000440000200149086070470000143C01403C
:10066000002123498279002A3AD00A461268036899
:100670009A430B461A600A1D126803689A430B1DC1
:100680001A60027911440A6803681A430A60184A1A
:100690000832126803689A43154B08331A601A1D12
:1006A000126803689A43124B0C331A604279102A7D
:1006B0000ED11A1F126803681A430D4B08331A60D3
:1006C0001A1D126803681A43094B0C331A600DE0B7
:1006D0000749427911440A6803681A430A6005E031
:1006E000027911440A6803689A430A60704700005F
:1006F000003C014051B18200A2F1C042126842F0B8
:1007000001038200A2F1C042136009E08200A2F15D
:10071000C0421268034B1A408300A3F1C0431A6021
:1007200070470000FEFF0F00D0E901121143C268BC
:100730001143026911434269114382691143C2693D
:100740001143026A1143426A1143826A1143C26A29
:100750001143026B114302689200A2F1C042116082
:10076000816808290BD101688900A1F1C04109689D
:1007700041F0400201688900A1F1C0410A60416B6B
:100780000968426B526841EA0211426B926841EA81
:100790000221426B928941EA0241426B128A41EA8C
:1007A0000251426B127D41EA0261426B9269114330
:1007B0000268521C9200A2F1C0421160C16AB1F5F8
:1007C000804F1BD1816B0968826B526841EA02112C
:1007D000826B926841EA0221826B128A41EA0251DD
:1007E000826B127D41EA0261826B92691143026859
:1007F0009200A2F1C042C2F8041107E06FF070420B
:1008000001688900A1F1C041C1F804217047F0B529
:100810000A4600210023002400BF3DE0012505FA1F
:1008200001F3156805EA03049C4234D105684F00C2
:100830000326BE40B543056015794E00B5400668F5
:10084000354305601579012D02D01579022D16D199
:1008500085684F000326BE40B543856055794E003C
:10086000B540866835438560456801268E40B543AE
:100870004560456896798E40B6B235434560C56897
:100880004F000326BE40B543C560D5794E00B54044
:10089000C6683543C560491C1029BFD3F0BDF0B50B
:1008A000002300244D07ED0E02FA05F3CE1000F1EF
:1008B000200555F826504E07F70E0F26BE40B543CB
:1008C000CF1000F1200646F82750CE1000F1200589
:1008D00055F8265045EA0304CE1000F1200545F8EE
:1008E0002640F0BD418370470183704700BFFEE79B
:1008F00000BFFEE77047000070B5002100230F2203
:10090000C4781CB3174C246804F4E064C4F5E064B4
:10091000C4F30721C1F10404E3B20A4144789C40C6
:10092000E1B28478144021430C07210E0E4C057867
:100930006155047804F01F050124AC4005786D1161
:10094000AD0005F1E025C5F8004109E0047804F0A8
:100950001F050124AC40054D0678761145F8264068
:1009600070BD00000CED00E000E400E080E100E07C
:1009700002490143024A1160704700000000FA0575
:100980000CED00E07047000029B1064A12680243EE
:10099000044B1A6004E0034A12688243014B1A6058
:1009A000704700003038024029B1064A12680243FD
:1009B000044B1A6004E0034A12688243014B1A6038
:1009C000704700003838024029B1064A12680243D5
:1009D000044B1A6004E0034A12688243014B1A6018
:1009E000704700004038024029B1064A12680243AD
:1009F000044B1A6004E0034A12688243014B1A60F8
:100A0000704700004438024021B1028842F400528D
:100A1000028004E002884DF6FF731A40028070479E
:100A200021B1028842F04002028004E002884FF6C1
:100A3000BF731A40028070471AB183880B438380CA
:100A400002E083888B438380704710B500220288C0
:100A500002F441520B884C8823438C882343CC8872
:100A600023430C8923434C8923438C892343CC891A
:100A700023431A430280838B4FF2FF742340838306
:100A80000B8A038210BD704730B500228B071C0F04
:100A90000F2303FA04F20B4B8C1053F824309343CA
:100AA000084C8D1044F8253023468C1053F8243020
:100AB0008C07240F00FA04F42343024C8D1044F8F1
:100AC000253030BD083801400CB500200190009061
:100AD0003448006840F480303249086000BF314833
:100AE000006800F4003000900198401C01900098CC
:100AF00018B90198B0F5A04FF1D12A48006800F468
:100B0000003010B10120009001E00020009000981A
:100B1000012846D123484030006840F080502149E8
:100B2000403108602048006840F440401E49086099
:100B30001C48083000681B490831086008460068F6
:100B400040F4004008600846006840F4A050086087
:100B50001648091F0860081F006840F08070091FD0
:100B6000086000BF0F48006800F000700028F9D04E
:100B700040F205700E4908600A480830006820F00D
:100B800003000849083108600846006840F0020088
:100B9000086000BF03480830006800F00C00082817
:100BA000F8D10CBD003802400070004008544007E6
:100BB000003C0240042808D14FF0E021096941F0CF
:100BC00004014FF0E022116107E04FF0E0210969D4
:100BD00021F004014FF0E0221161704770470000DE
:100BE00010B51548006840F47000134908601348B8
:100BF000006840F001001149086000200F490831E9
:100C000008600E4800680E4908400C4908600D480D
:100C1000091D0860081F006820F48020091F086073
:100C2000002006490C310860FFF74EFF4FF00060CE
:100C300001498039086010BD88ED00E000380240AD
:100C4000FFFFF6FE1030002410B50121074800F028
:100C50002CF8012804D106480068401C04490860AB
:100C60000121024800F012F810BD0000000400400D
:100C70002000002021B1028842F08002028004E0BE
:100C800002884FF67F731A4002807047CA4302827F
:100C9000704721B1028842F00102028004E002881C
:100CA0004FF6FE731A400280704730B502460020AE
:100CB00000230024158A05EA0103958905EA010449
:100CC00013B10CB1012000E0002030BD1AB18389BE
:100CD0000B43838102E083898B438381704700004B
:100CE00070B5002400220023058C4FF6FE763540B7
:100CF0000584028C8388048B4FF68F752C40B51EBB
:100D00002C400D882C43751E2A408D892A434D881E
:100D10002A43104DA84202D00F4DA84213D14FF6DE
:100D2000F7752A40CD892A434FF6FB752A408D88F6
:100D30002A434FF6FF652B404FF6FF552B400D8A97
:100D40002B434D8A2B43838004838D684563028443
:100D500070BD000000000140000401400A4600216F
:100D6000018B4FF6F7731940114301837047000060
:100D700000220288184B98420ED0184B98420BD094
:100D8000B0F1804F08D0164B984205D0154B9842D1
:100D900002D0154B984204D14FF68F731A404B88FE
:100DA0001A43124B984207D0114B984204D04FF689
:100DB000FF431A400B891A4302804B68C3620B88B9
:100DC0000385054B984202D0044B984201D18B7A9F
:100DD0000386012383827047000001400004014024
:100DE0000004004000080040000C004000100040DB
:100DF0000014004000BFFEE710B50421012000F000
:100E0000DBFE01F025FA00F0BDFE01F007FA00F06C
:100E1000D3FF01F045F800F061FB00F0D5FA00F0D7
:100E2000EFFD10BD38B5012240F20921684601F0FE
:100E3000EDFA9DF80000172801D0002038BDA44825
:100E4000A4490860442009680870A2480068401C52
:100E5000A04908604120096808709E480068401C4D
:100E60009C4908605420096808709A480068401C32
:100E700098490860984800880012096808709548E9
:100E80000068401C9349086093480078096808701E
:100E900090480068401C8F4908608F480088401CBB
:100EA0008D4908808D480078401C8D4991FBF0F0F9
:100EB0004FF4FA7190FBF1F087490988884202DA11
:100EC00001208549088000BF86480068B0F57A7F18
:100ED000FAD9002410E08448006800787D49096848
:100EE000087081480068401C7F49086079480068A4
:100EF000401C78490860641CB4F57A7FEBD37A48CB
:100F000000687A49401A7A49884202DB7748764974
:100F10000860002410E07748006800786D4909688F
:100F2000087074480068401C72490860694800688D
:100F3000401C68490860641CB4F57A7FEBD36D48A7
:100F400000686D49401A6A49884202DB6A4869496B
:100F50000860002410E06948006800785D4909686D
:100F6000087066480068401C644908605948006879
:100F7000401C58490860641CB4F57A7FEBD35F4885
:100F800000685F49401A5A49884202DB5C485B4965
:100F90000860002410E05B48006800784D4909684B
:100FA000087058480068401C564908604948006865
:100FB000401C48490860641CB4F57A7FEBD3514863
:100FC00000685149401A4A49884202DB4E484D495F
:100FD000086044480068A0F57A7042490860002023
:100FE0003C49096808703B480068401C3949086062
:100FF00000200968087037480068401C35490860BF
:10100000002411E000203349096808703148006865
:10101000401C304908600020096808702D480068AD
:10102000401C2C490860641C062CEBD30020294985
:101030000968087027480068401C2649086000209D
:101040000968087023480068401C224908605F2036
:10105000096808701F480068401C1E49086050203D
:10106000096808701B480068401C1A490860532032
:101070000968087017480068401C1649086041203C
:101080000968087013480068401C1249086049202C
:10109000096808700F480068401C0E49086008463F
:1010A00000780B49401A00F0010040B15F20094967
:1010B0000968087007480068401C06490860054830
:1010C0000068034A811A104600F012FE0120B5E6BE
:1010D0004C0000202C0000204000002024000020B4
:1010E000366E01004400002030000020000000683F
:1010F00090D003003400002090D003683800002016
:1011000020A107683C000020B0710B687CB5002569
:1011100000BF00201B49086033E01A480068B0F5A2
:10112000FA6F01D300207CBD00F0CDFD044644B32E
:101130002146684600F096FD9DF80000442820D125
:101140009DF8010049281CD19DF80200562818D1AD
:101150009DF807009DF806100B4A505441208DF869
:10116000000043208DF801004B208DF8020008217B
:10117000684600F0BDFD681CC5B2042D01DB0120EE
:10118000D1E7CAE720000020250000201CB5002080
:101190001C49086035E01B480068B0F5FA6F01D3C0
:1011A00000201CBD00F08FFD044654B32146684664
:1011B00000F058FD9DF80000492822D19DF801005B
:1011C0004E281ED19DF8020054281AD141208DF8D6
:1011D000000043208DF801004B208DF80200012013
:1011E0008DF8040006208DF8050001208DF806001A
:1011F00004208DF807000821684600F079FD0120E1
:10120000CFE7C8E7200000201CB50020184908607F
:101210002DE017480068B0F5FA6F01D300201CBD1F
:1012200000F051FD044614B32146684600F01AFD53
:101230009DF8000050281AD19DF80100522816D1BF
:101240009DF80200452812D19DF807000949087051
:1012500041208DF8000043208DF801004B208DF8CF
:1012600002000821684600F043FD0120D7E7D0E7DF
:1012700020000020240000201CB51CE00E4800685F
:10128000B0F5FA6F01D300201CBD00F01CFD044630
:101290008CB12146684600F0E5FC9DF8000053281B
:1012A00009D19DF80100542805D19DF8020041287C
:1012B00001D10120E8E7E1E72000002010B5044655
:1012C0006FF00400FFF776FCE11704EB5171C1F3F6
:1012D000C701074A11701046007800EB4001C1EBCE
:1012E000C0104FF6FF7101EAC0000249088010BD2E
:1012F000480000204A00002070B504464FF40770F3
:1013000094FBF0F0C6B24FF4077094FBF0F100FBD1
:10131000114085B205E04FF4077000F02FF8701E01
:10132000C6B2002EF7D115B1284600F027F870BDDF
:101330000146114A12784A434FF0E0235A610022D5
:101340009A611A46126942F001021A6100BF4FF019
:10135000E022106900F001021AB100F48032002A84
:10136000F5D04FF0E022126922F001024FF0E023A5
:101370001A6100229A617047480000200146114A14
:1013800012884A434FF0E0235A6100229A611A46BC
:10139000126942F001021A6100BF4FF0E0221069A9
:1013A00000F001021AB100F48032002AF5D04FF0AB
:1013B000E022126922F001024FF0E0231A610022BC
:1013C0009A6170474A00002000B591B0012148059C
:1013D000FFF7DAFA3D48FEF7B5FF00BF3B48FFF7DD
:1013E0005DF80028FAD102903948039039480490FA
:1013F0004020059006200690002007904FF4806062
:101400000890002009900A900B904FF440300C9007
:1014100000200D9003200E9000200F90109002A944
:101420002A48FFF763F80122022129480C38FFF708
:1014300003FB01214805FFF7A7FA24481838FEF7F7
:1014400081FF00BF21481838FFF728F80028F9D19C
:1014500002901F4803902048049000200590062029
:101460000690002007904FF48060089000200990BB
:101470000A900B904FF440300C9000200D90032008
:101480000E9000200F901090012210210F48183864
:10149000FFF70EF802A90D481838FFF727F80122C8
:1014A00011460B480C38FFF7C7FA0E208DF80400E0
:1014B00001208DF8050003208DF8060001208DF82D
:1014C000070001A8FFF718FA11B000BD70600240D4
:1014D0000C3800401A0000201400002000B591B024
:1014E00001218805FFF750FA3F48FEF72BFF00BFA8
:1014F0003D48FEF7D3FF0028FAD14FF0C0600290BC
:101500003A4803903A4804904020059006200690FF
:10151000002007904FF480600890002009900A9006
:101520000B904FF440300C9000200D9003200E9053
:1015300000200F90109002A92B48FEF7D7FF012240
:1015400002212A480C38FFF777FA01218805FFF7B6
:101550001BFA25481838FEF7F5FE00BF2248183858
:10156000FEF79CFF0028F9D14FF0C06002901F48A1
:10157000039020480490002005900620069000204B
:1015800007904FF480600890002009900A900B901B
:101590004FF440300C9000200D9003200E9000205E
:1015A0000F901090012210210F481838FEF780FF8D
:1015B00002A90D481838FEF799FF012211460B4881
:1015C0000C38FFF739FA3A208DF8040001208DF825
:1015D000050002208DF8060001208DF8070001A803
:1015E000FFF78AF911B000BD586402400C30014089
:1015F0000E0000200800002000B599B001217820DD
:10160000FFF7C2F94FF63370179002208DF8600093
:1016100000208DF8620003208DF8610001208DF814
:10162000630017A9AD48FFF7F2F84FF683701790E3
:1016300002208DF8600000208DF8620003208DF8F4
:10164000610001208DF8630017A9A548FFF7DFF8B6
:101650004FF23F00179002208DF8600000208DF8B7
:10166000620003208DF8610001208DF8630017A946
:101670009C48FFF7CCF840F23F20179002208DF8ED
:10168000600000208DF8620003208DF861000120C9
:101690008DF8630017A99448FFF7B9F80C220021D0
:1016A0008E48FFF7FCF80C2201218C48FFF7F7F871
:1016B0000C2204218948FFF7F2F80C220521874803
:1016C000FFF7EDF80C2208218448FFF7E8F80C2218
:1016D00009218248FFF7E3F80C220A217F48FFF72F
:1016E000DEF80C220B217D48FFF7D9F80C221146B9
:1016F0007A48FFF7D4F80C220D217848FFF7CFF88D
:101700000C220E217548FFF7CAF80C220F217348EE
:10171000FFF7C5F80C2200217148FFF7C0F80C2232
:1017200001216F48FFF7BBF80C2207216C48FFF737
:10173000B6F80C2208216A48FFF7B1F80C220921FB
:101740006748FFF7ACF80C220A216548FFF7A7F8B5
:101750000C220B216248FFF7A2F80C2211466048C8
:10176000FFF79DF80C220D215D48FFF798F80C2239
:101770000E215B48FFF793F80C220F215848FFF722
:101780008EF80C2200215748FFF789F80C2201211E
:101790005448FFF784F80C2202215248FFF77FF8E3
:1017A0000C2203214F48FFF77AF80C2204214D4800
:1017B000FFF775F80C2205214A48FFF770F80C2254
:1017C00011464848FFF76BF80C220D214548FFF7FA
:1017D00066F80C220E214348FFF761F80C220F2116
:1017E0004048FFF75CF80C2200213F48FFF757F80C
:1017F0000C2201213C48FFF752F80C2202213A4802
:10180000FFF74DF80C2203213748FFF748F80C2268
:1018100004213548FFF743F80C2205213248FFF731
:101820003EF80C2209213048FFF739F8012108461B
:10183000FFF7BAF80A200190002002900A200390D6
:101840000020049005900690079002200890002048
:1018500009900A900B900C900E900D900F901090A4
:101860004FF480501190002012901390149001A812
:101870001590169008A8FEF757FF01210220FEF7E9
:1018800039FF01210820FFF77FF808201790012079
:101890008DF8600000208DF8620003208DF8610053
:1018A00001208DF8630017A90C48FEF7B0FF08214E
:1018B0000A48FFF719F80A20FFF71EFD082107481C
:1018C000FFF710F80120FFF717FD08210348FFF785
:1018D0000BF80A20FFF710FD19B000BD000C024004
:1018E00000100240001402400018024000B587B00A
:1018F0003EA0006806903EA0006805903DA103C987
:10190000CDE903013DA000680290FFF775FE382085
:101910008DF8040000208DF805000222002101A8A6
:1019200000F080FDFF208DF804008DF805000222F4
:10193000114601A800F076FD00208DF804008DF816
:1019400005000222042101A800F06CFD06220821F6
:1019500003A800F067FD0422102106A800F062FD34
:101960000422142105A800F05DFD0422182102A81C
:1019700000F058FD07208DF80400D0208DF80500F8
:1019800002221C2101A800F04DFD00208DF804006A
:1019900008208DF8050002221E2101A800F042FD5A
:1019A00020208DF804000122202101A800F03AFD3A
:1019B0000122282101A800F035FD00208DF8040047
:1019C000FF208DF805000222302101A800F02AFD39
:1019D00053208DF8040000208DF805000222FE211E
:1019E00001A800F01FFD07B000BD0000C0A8010164
:1019F000FFFFFF003C970EBDB5100000C0A801100E
:101A000000B585B001210320FEF7BEFF1020009035
:101A100000208DF8040003208DF8050001208DF8CA
:101A2000070069462548FEF7F2FE4FF4805000900B
:101A300000208DF8040003208DF8050001208DF8AA
:101A4000070069461E48FEF7E2FE01218803FEF703
:101A5000CBFF04210020FFF717F80C210120FFF72E
:101A600013F841F21000029000208DF80C000C20B9
:101A70008DF80D0001208DF80E0002A8FEF7F0FD94
:101A80000A208DF8100000208DF811008DF812004A
:101A900001208DF8130004A8FEF72EFF28208DF8F2
:101AA000100000208DF8110001208DF812008DF833
:101AB000130004A8FEF720FF05B000BD000002409F
:101AC0000004024008B5012240F20921684600F0F6
:101AD0009DFC9DF80000172801D1012008BD0020C1
:101AE000FCE700001CB501211020FEF74DFF382057
:101AF000009001208DF8040000208DF806000320DE
:101B00008DF8050001208DF8070069460348FEF7AF
:101B10007EFE38210148FEF7E7FE1CBD00100240A2
:101B20004FF4A060FEF724FFA820FFF7C7FBA82012
:101B300000F036FCFFF7D6FFFFF75EF900F01CFA65
:101B400000BFFFF7D3FE00F09FFB00BFFFF7BAFF17
:101B50000028FBD015E0FFF719FB00B9F1E7FFF70C
:101B600053FB00B9EDE7FFF7D1FA00B9E9E7FFF75A
:101B700083FB00B9E5E703E0FFF754F900B9E0E7BC
:101B8000FAE7E8E710B54FF400410A48FEF7ACFE6B
:101B90001420FFF7B1FB4FF400410648FEF7A2FE08
:101BA0001420FFF7A9FB4FF400410248FEF79CFE0A
:101BB00010BD00000004024030B58BB005460C4655
:101BC00001210846FEF7E0FE092207212348FEF71F
:101BD00066FE8020099002208DF8280003208DF8F1
:101BE000290000208DF82A0001208DF82B0009A97A
:101BF0001A48FEF70CFE01210802FEF7E5FE681EFA
:101C000080B2ADF818000020ADF81A00601E0790F1
:101C10000020ADF8200006A91148FFF7A9F86020C0
:101C2000ADF804000120ADF806000020ADF810006A
:101C3000601E4008039001A90948FFF751F80821E8
:101C40000748FFF78BF801210548FFF713F801213A
:101C50000348FFF71EF80BB030BD00000000024043
:101C600000200040F8B507460D466808B5EB400F68
:101C70000ED0681C4608002407E002224FF40C71C5
:101C8000384600F0C3FBBF1C641CB442F5D30CE023
:101C90006E08002407E002224FF40C71384600F071
:101CA000B5FBBF1C641CB442F5D340200090012258
:101CB00040F20321684600F0A9FB01225102684668
:101CC00000F0A4FBF8BD18B504224FF40A71684671
:101CD00000F09CFB9DF80100C007C00B9DF80210AE
:101CE00040EA01209DF8031040EA0104204618BD97
:101CF0002DE9F84107460C4600BF012240F20921B8
:101D0000684600F083FB9DF80000172801D0BDE86D
:101D1000F88104224FF40971684600F077FB9DF8C2
:101D20000100C007C00B9DF8021040EA01209DF899
:101D3000031040EA0108A04500D2DEE76008B4EBDA
:101D4000400F0ED0601C4608002507E0022240F23A
:101D50002E21384600F066FBBF1C6D1CB542F5D342
:101D60000CE06608002507E0022240F22E213846EA
:101D700000F058FBBF1C6D1CB542F5D300208DF858
:101D80000000200C8DF80100200A8DF80200E0B25E
:101D90008DF8030004224FF40871684600F042FBFE
:101DA00020208DF80000012240F20321684600F057
:101DB00039FB00BFABE7000000B587B00121084642
:101DC000FEF7E2FD6020059002208DF8180000204B
:101DD0008DF81A0003208DF8190001208DF81B00E2
:101DE00005A91D48FEF713FD052211461A48FEF706
:101DF00056FD052206211848FEF751FD0121080372
:101E0000FEF7F2FD0020ADF800004FF48270ADF84F
:101E100002000020ADF80400ADF80600ADF808009F
:101E20004FF40070ADF80A001020ADF80C0000204F
:101E3000ADF80E000720ADF8100069460748FEF720
:101E400004FE00210548FEF7DFFD01210348FEF7EF
:101E5000E7FD07B000BD0000000002400030014077
:101E60004FF400100549086004483830006840F01D
:101E700001000249383108607047000008640240E0
:101E80004FF000600549086004485030006840F099
:101E900001000249503108607047000008640240A8
:101EA00000B587B001210220FEF76EFD4FF4C0405F
:101EB000059002208DF8180000208DF81A000320EC
:101EC0008DF8190001208DF81B0005A91C48FEF7AC
:101ED0009EFC05220D211A48FEF7E1FC05220E2189
:101EE0001748FEF7DCFC01218803FEF76DFD00209A
:101EF000ADF800004FF48270ADF802000020ADF89C
:101F00000400ADF80600ADF808004FF40070ADF81D
:101F10000A000820ADF80C000020ADF80E000720E4
:101F2000ADF8100069460748FEF78FFD002105480F
:101F3000FEF76AFD01210348FEF772FD07B000BD00
:101F400000040240003800404FF000600349886000
:101F50000846806D40F001008865704700600240CF
:101F600020200449C8600846006F40F0010008675F
:101F7000704700000060024000B599B00121782050
:101F8000FEF702FD4FF63370179002208DF86000C7
:101F900000208DF8620003208DF8610001208DF88B
:101FA000630017A99948FEF732FC4FF6837017902B
:101FB00002208DF8600000208DF8620003208DF86B
:101FC000610001208DF8630017A99148FEF71FFCFE
:101FD0004FF23F00179002208DF8600000208DF82E
:101FE000620003208DF8610001208DF8630017A9BD
:101FF0008848FEF70CFC40F23F40179002208DF815
:10200000600000208DF8620003208DF8610001203F
:102010008DF8630017A98048FEF7F9FB0C22002118
:102020007A48FEF73CFC0C2201217848FEF737FC89
:102030000C2204217548FEF732FC0C22052173485E
:10204000FEF72DFC0C2208217048FEF728FC0C221C
:1020500009216E48FEF723FC0C220A216B48FEF78B
:102060001EFC0C220B216948FEF719FC0C221146BC
:102070006648FEF714FC0C220D216448FEF70FFCA5
:102080000C220E216148FEF70AFC0C220F215F484A
:10209000FEF705FC0C2200215D48FEF700FC0C2237
:1020A00001215B48FEF7FBFB0C2207215848FEF795
:1020B000F6FB0C2208215648FEF7F1FB0C22092101
:1020C0005348FEF7ECFB0C220A215148FEF7E7FBD0
:1020D0000C220B214E48FEF7E2FB0C2211464C4825
:1020E000FEF7DDFB0C220D214948FEF7D8FB0C2240
:1020F0000E214748FEF7D3FB0C220F214448FEF780
:10210000CEFB0C2200214348FEF7C9FB0C22012123
:102110004048FEF7C4FB0C2202213E48FEF7BFFBFD
:102120000C2203213B48FEF7BAFB0C22042139485C
:10213000FEF7B5FB0C2205213648FEF7B0FB0C225A
:1021400011463448FEF7ABFB0C220D213148FEF757
:10215000A6FB0C220E212F48FEF7A1FB0C220F211B
:102160002C48FEF79CFB0C2200212B48FEF797FB26
:102170000C2201212848FEF792FB0C22022126485E
:10218000FEF78DFB0C2203212348FEF788FB0C226F
:1021900004212148FEF783FB0C2205211E48FEF78F
:1021A0007EFB0C220A211C48FEF779FB0121084620
:1021B000FEF7FAFB0120019000200290022003901C
:1021C00000200490059006900790042008900020BD
:1021D00009900A9010200B9000200C900E900D900A
:1021E0000F9010904FF48050119000201290139097
:1021F000149001A81590169008A8FEF795FA0121F1
:102200000420FEF777FA19B000BD0000000C024070
:1022100000100240001402400018024010B54FF4B4
:1022200000410A48FEF760FB1420FFF765F84FF401
:1022300000410648FEF756FB0120FFF779F84FF4FE
:1022400000410248FEF750FB10BD000000040240B0
:102250001CB501210220FEF797FB4FF400400090CF
:1022600001208DF8040000208DF8060003208DF871
:10227000050001208DF8070069460248FEF7C7FAFD
:102280001CBD00000004024008B500BF01208DF80D
:10229000000021208DF8010002221102684600F0A2
:1022A000C1F800208DF800008DF8000002224FF4E4
:1022B0000171684600F0B6F8FF208DF800008DF837
:1022C0000000022240F20621684600F0ABF80F2021
:1022D0008DF8000010208DF80100022240F20A2142
:1022E000684600F09FF805208DF80000B4208DF8B6
:1022F000010002224FF40671684600F093F80A20AC
:102300008DF80000012240F21A21684600F08AF898
:1023100000208DF8000080208DF80100022240F29C
:102320001E21684600F07EF801208DF80000012291
:1023300040F20321684600F075F8012240F20921BD
:10234000684600F063F89DF80000132809D01020BB
:102350008DF80000012240F20321684600F062F887
:1023600094E702208DF80000012240F20321684624
:1023700000F058F8012240F20921684600F046F8C2
:102380009DF80000142809D010208DF800000122CB
:1023900040F20321684600F045F877E708BD0000E9
:1023A0001FB5044601210220FEF70EFB40F2E73084
:1023B0000290204604EBD0714910491C89B2ADF857
:1023C00004100020ADF80600ADF80C0001A90E487D
:1023D000FEF7CEFC012211460B48FEF777FC0121E7
:1023E0000948FEF756FC1D208DF8000001208DF8ED
:1023F000010003208DF8020001208DF803006846DB
:10240000FEF77AFA1FBD00000004004007E04FF01D
:10241000C8435B5C0370491C401C531EDAB2002A9F
:10242000F5DC704710B507E004784FF0C8435C5402
:10243000491C401C531EDAB2002AF5DC10BD4FF0D7
:102440004070E1EE100A7047682400080000002088
:102450004C000000C4010008B42400084C00002017
:10246000EC190000E001000800000000000000007E
:10247000000000000000000000000000000000005C
:10248000000000000000000000000000000000004C
:10249000000000004C0000200000006890D003689D
:1024A00020A10768B0710B68000000000000000068
:0424B0000000000028
:040000050800018965
:00000001FF
