:020000040800F2
:1000000090060020290200085F0500085705000837
:100010005B050008E3020008090B0008000000006F
:1000200000000000000000000000000001080008BF
:100030005103000800000000ED0500085909000800
:10004000430200084302000843020008430200087C
:10005000430200084302000843020008430200086C
:100060004302000843020008CD03000843020008D1
:10007000430200084302000843020008430200084C
:10008000430200084302000843020008430200083C
:10009000430200084302000843020008430200082C
:1000A000430200084302000843020008430200081C
:1000B000430200084302000843020008430200080C
:1000C00043020008430200084302000843020008FC
:1000D00043020008430200084302000843020008EC
:1000E00055030008430200084302000843020008C9
:1000F00043020008430200084302000843020008CC
:1001000043020008430200084302000843020008BB
:1001100043020008430200084302000843020008AB
:100120004302000843020008E902000843020008F5
:10013000430200084302000843020008430200088B
:10014000430200084302000843020008430200087B
:10015000430200084302000843020008430200086B
:10016000430200084302000843020008430200085B
:10017000430200084302000843020008430200084B
:10018000430200084302000800F002F800F03CF8C7
:100190000AA090E8000C82448344AAF10107DA45E2
:1001A00001D100F031F8AFF2090EBAE80F0013F0F8
:1001B000010F18BFFB1A43F001031847AC0E0000F3
:1001C000CC0E0000103A24BF78C878C1FAD8520784
:1001D00024BF30C830C144BF04680C6070470000C1
:1001E0000023002400250026103A28BF78C1FBD840
:1001F000520728BF30C148BF0B6070471FB500F0E1
:100200002DFF1FBD10B510BD00F031F81146FFF7EE
:10021000F5FF00F0B1FD00F04FF803B4FFF7F2FF77
:1002200003BC00F057F80000094880470948004720
:10023000FEE7FEE7FEE7FEE7FEE7FEE7FEE7FEE796
:10024000FEE7FEE704480549054A064B70470000F3
:100250005D09000889010008900000209006002038
:10026000900200209002002070477047704775464A
:1002700000F02CF8AE4605006946534620F0070012
:10028000854618B020B5FFF7DDFFBDE820404FF0F0
:1002900000064FF000074FF000084FF0000B21F070
:1002A0000701AC46ACE8C009ACE8C009ACE8C0093D
:1002B000ACE8C0098D46704710B50446AFF3008026
:1002C0002046BDE81040FFF7A8BF00000048704777
:1002D0003000002001491820ABBEFEE726000200D6
:1002E000704700BFFEE7000010B508480068401CDA
:1002F00006490860064800680968401A0549086010
:100300004FF08151044800F009F810BD240000208E
:100310002000002028000020406402400246094BD3
:100320009A4201D2084801E00648103801F0005313
:100330001BB1064B0B40C36002E0044B0B408360D3
:100340007047000010640240006002407D0F7D0F86
:100350007047000010B5FF2000F09AF918490870A6
:10036000FF2000F095F916494870FF2000F090F941
:1003700013498870FF2000F08BF91149C870FF20E5
:1003800000F086F90E490871FF2000F081F90C4950
:10039000487108464078097840EA012000B20949CE
:1003A0000880074800790649C97840EA012000B270
:1003B000054908804FF4805000F00EF810BD000091
:1003C0000C0000201C0000201E00002010B5102092
:1003D00000F002F810BD00000149086070470000FD
:1003E000143C0140002123498279002A3AD00A4670
:1003F000126803689A430B461A600A1D1268036864
:100400009A430B1D1A60027911440A6803681A4363
:100410000A60184A0832126803689A43154B083379
:100420001A601A1D126803689A43124B0C331A6043
:100430004279102A0ED11A1F126803681A430D4B15
:1004400008331A601A1D126803681A43094B0C33EB
:100450001A600DE00749427911440A6803681A439B
:100460000A6005E0027911440A6803689A430A6049
:1004700070470000003C0140F0B50A46002100230F
:10048000002400BF3DE0012505FA01F3156805EAE7
:1004900003049C4234D105684F000326BE40B54397
:1004A000056015794E00B54006683543056015793D
:1004B000012D02D01579022D16D185684F00032633
:1004C000BE40B543856055794E00B54086683543DA
:1004D0008560456801268E40B5434560456896793C
:1004E0008E40B6B235434560C5684F000326BE4016
:1004F000B543C560D5794E00B540C6683543C56083
:10050000491C1029BFD3F0BDF0B5002300244D07CE
:10051000ED0E02FA05F3CE1000F1200555F8265035
:100520004E07F70E0F26BE40B543CF1000F1200650
:1005300046F82750CE1000F1200555F8265045EA20
:100540000304CE1000F1200545F82640F0BD41839C
:1005500070470183704700BFFEE700BFFEE77047AA
:1005600070B5002100230F22C4781CB3174C2468F7
:1005700004F4E064C4F5E064C4F30721C1F10404A9
:10058000E3B20A4144789C40E1B2847814402143AC
:100590000C07210E0E4C05786155047804F01F05F8
:1005A0000124AC4005786D11AD0005F1E025C5F8DA
:1005B000004109E0047804F01F050124AC40054D1A
:1005C0000678761145F8264070BD00000CED00E07D
:1005D00000E400E080E100E002490143024A1160CA
:1005E000704700000000FA050CED00E070470000C5
:1005F00029B1064A12680243044B1A6004E0034A18
:1006000012688243014B1A60704700003038024084
:1006100029B1064A12680243044B1A6004E0034AF7
:1006200012688243014B1A60704700004038024054
:1006300029B1064A12680243044B1A6004E0034AD7
:1006400012688243014B1A60704700002038024054
:1006500029B1064A12680243044B1A6004E0034AB7
:1006600012688243014B1A60704700004438024010
:1006700029B1064A12680243044B1A6004E0034A97
:1006800012688243014B1A60704700002438024010
:1006900010B5044600BF02210A4800F085F8002882
:1006A000F9D02146074800F08BF800BF012105482A
:1006B00000F07AF80028F9D0024800F07EF8C0B2C5
:1006C00010BD00000038004021B1028842F4005201
:1006D000028004E002884DF6FF731A4002807047E2
:1006E00021B1028842F04002028004E002884FF605
:1006F000BF731A400280704710B5044624488442F4
:1007000008D101218014FFF7B3FF0021A014FFF7E7
:10071000AFFF3CE01F48844208D101210014FFF7DD
:1007200087FF00212014FFF783FF30E01A4884423E
:1007300008D10121C013FFF77BFF0021E013FFF771
:1007400077FF24E01548844208D101214014FFF7C7
:100750008FFF00216014FFF78BFF18E010488442E0
:1007600009D101210805FFF783FF00214FF4801014
:10077000FFF77EFF0BE00B48844208D101214805BA
:10078000FFF776FF00214FF40010FFF771FF10BD57
:100790000030014000380040003C0040003401407F
:1007A00000500140005401400246002013890B40D4
:1007B0000BB1012000E00020704701468889704796
:1007C0008181704710B50022028802F441520B88E3
:1007D0004C8823438C882343CC8823430C892343B0
:1007E0004C8923438C892343CC8923431A430280B9
:1007F000838B4FF2FF74234083830B8A038210BDE7
:100800007047000030B500228B071C0F0F2303FA3E
:1008100004F20B4B8C1053F824309343084C8D108A
:1008200044F8253023468C1053F824308C07240FCD
:1008300000FA04F42343024C8D1044F8253030BDF7
:10084000083801400CB50020019000903448006841
:1008500040F480303249086000BF3148006800F43D
:10086000003000900198401C0190009818B9019840
:10087000B0F5A04FF1D12A48006800F4003010B163
:100880000120009001E0002000900098012846D14E
:1008900023484030006840F08050214940310860D2
:1008A0002048006840F440401E4908601C48083059
:1008B00000681B49083108600846006840F40040A1
:1008C00008600846006840F4A05008601648091FF8
:1008D0000860081F006840F08070091F086000BFB2
:1008E0000F48006800F000700028F9D040F2057051
:1008F0000E4908600A480830006820F003000849E3
:10090000083108600846006840F00200086000BF37
:1009100003480830006800F00C000828F8D10CBD2E
:10092000003802400070004008544007003C02407C
:10093000042808D14FF0E021096941F004014FF08B
:10094000E022116107E04FF0E021096921F0040184
:100950004FF0E022116170477047000010B5154854
:10096000006840F47000134908601348006840F0C4
:1009700001001149086000200F49083108600E4845
:1009800000680E4908400C4908600D48091D0860C0
:10099000081F006820F48020091F08600020064915
:1009A0000C310860FFF74EFF4FF0006001498039BD
:1009B000086010BD88ED00E000380240FFFFF6FE41
:1009C0001030002421B1028842F08002028004E04D
:1009D00002884FF67F731A400280704721B1028867
:1009E00042F00102028004E002884FF6FE731A40D2
:1009F0000280704770B5002400220023058C4FF65A
:100A0000FE7635400584028C8388048B4FF68F7503
:100A10002C40B51E2C400D882C43751E2A408D8914
:100A20002A434D882A43104DA84202D00F4DA842B8
:100A300013D14FF6F7752A40CD892A434FF6FB753F
:100A40002A408D882A434FF6FF652B404FF6FF550D
:100A50002B400D8A2B434D8A2B43838004838D6862
:100A60004563028470BD00000000014000040140A5
:100A70000A460021018B4FF6F77319401143018399
:100A80007047000000220288184B98420ED0184B85
:100A900098420BD0B0F1804F08D0164B984205D049
:100AA000154B984202D0154B984204D14FF68F73E4
:100AB0001A404B881A43124B984207D0114B984268
:100AC00004D04FF6FF431A400B891A4302804B684B
:100AD000C3620B880385054B984202D0044B9842B1
:100AE00001D18B7A03860123838270470000014085
:100AF000000401400004004000080040000C0040D9
:100B0000001000400014004000BFFEE710B50421B3
:100B1000012000F071F900F085FA00F053F900F0BF
:100B200067FA00F0BFF900F011FA10BD10B50446E5
:100B30006FF00400FFF7FCFEE11704EB5171C1F305
:100B4000C701074A11701046007800EB4001C1EB65
:100B5000C0104FF6FF7101EAC0000249088010BDC5
:100B60002C0000202E00002070B504464FF40770C2
:100B700094FBF0F0C6B24FF4077094FBF0F100FB69
:100B8000114085B205E04FF4077000F02FF8701E99
:100B9000C6B2002EF7D115B1284600F027F870BD77
:100BA0000146114A12784A434FF0E0235A6100226D
:100BB0009A611A46126942F001021A6100BF4FF0B1
:100BC000E022106900F001021AB100F48032002A1C
:100BD000F5D04FF0E022126922F001024FF0E0233D
:100BE0001A6100229A6170472C0000200146114AC8
:100BF00012884A434FF0E0235A6100229A611A4654
:100C0000126942F001021A6100BF4FF0E022106940
:100C100000F001021AB100F48032002AF5D04FF042
:100C2000E022126922F001024FF0E0231A61002253
:100C30009A6170472E00002000B585B00121032085
:100C4000FFF7D6FC1020009000208DF80400032050
:100C50008DF8050001208DF8070069462548FFF74B
:100C60000BFC4FF48050009000208DF8040003200E
:100C70008DF8050001208DF8070069461E48FFF732
:100C8000FBFB01218803FFF7E3FC04210020FFF7B1
:100C9000B9FD0C210120FFF7B5FD41F210000290D3
:100CA00000208DF80C000C208DF80D0001208DF82F
:100CB0000E0002A8FFF796FB0A208DF81000002016
:100CC0008DF811008DF8120001208DF8130004A892
:100CD000FFF746FC28208DF8100000208DF8110049
:100CE00001208DF812008DF8130004A8FFF738FCDE
:100CF00005B000BD000002400004024010B50446EB
:100D000024B110210448FFF722FC03E0102102481F
:100D1000FFF71FFC10BD0000001002401CB50121B0
:100D20001020FFF765FC3820009001208DF80400AA
:100D300000208DF8060003208DF8050001208DF8B5
:100D4000070069460348FFF797FB38210148FFF782
:100D5000FEFB1CBD0010024010B5044624B120214A
:100D60000448FFF7F4FB03E020210248FFF7F1FB02
:100D700010BD0000001002404FF4A060FFF72CFCF3
:100D8000A820FFF7D3FEFFF7C9FFFFF7BFFEFFF76D
:100D900053FF15E00020FFF7DFFF4FF44870FFF727
:100DA000E3FE0120FFF7AAFF6420FFF7DDFE00202D
:100DB000FFF7A4FF0120FFF7CFFF6420FFF7D4FE69
:100DC000E8E7000010B54FF400410A48FFF7C1FB07
:100DD0001420FFF7C9FE4FF400410648FFF7B7FBA8
:100DE0001420FFF7C1FE4FF400410248FFF7B1FBAA
:100DF00010BD00000004024030B58BB005460C4623
:100E000001210846FFF7F4FB092207212348FFF7D9
:100E10007BFB8020099002208DF8280003208DF8AC
:100E2000290000208DF82A0001208DF82B0009A947
:100E30001A48FFF721FB01210802FFF7E9FB681EB2
:100E400080B2ADF818000020ADF81A00601E0790BF
:100E50000020ADF8200006A91148FFF713FE60201E
:100E6000ADF804000120ADF806000020ADF8100038
:100E7000601E4008039001A90948FFF7BBFD082147
:100E80000748FFF7F5FD01210548FFF79BFD01210C
:100E90000348FFF7A3FD0BB030BD00000000024087
:100EA0000020004000B587B001210846FFF7A0FBF5
:100EB0006020059002208DF8180000208DF81A009F
:100EC00003208DF8190001208DF81B0005A91D488D
:100ED000FFF7D2FA052211461A48FFF715FB052243
:100EE00006211848FFF710FB01210803FFF7B0FBAC
:100EF0000020ADF800004FF48270ADF80200002031
:100F0000ADF80400ADF80600ADF808004FF400702D
:100F1000ADF80A001020ADF80C000020ADF80E006E
:100F20000720ADF8100069460748FFF74BFC002189
:100F30000548FFF7C9FB01210348FFF7D1FB07B0C4
:100F400000BD0000000002400030014000B587B045
:100F500001210220FFF74CFB01218803FFF758FB1A
:100F60004FF4C040059002208DF8180000208DF845
:100F70001A0002208DF8190001208DF81B0005A928
:100F80001948FFF779FA05220D211748FFF7BCFA37
:100F900005220E211448FFF7B7FA1448FFF7ACFBFF
:100FA0000020ADF800004FF48270ADF80200002080
:100FB000ADF80400ADF80600ADF808004FF400707D
:100FC000ADF80A000020ADF80C00ADF80E000720C7
:100FD000ADF8100069460548FFF7F4FB012103480E
:100FE000FFF77EFB07B000BD000402400038004060
:100FF00010B54FF400410A48FFF7ABFA1420FFF791
:10100000B3FD4FF400410648FFF7A1FA0120FFF7B6
:10101000C7FD4FF400410248FFF79BFA10BD0000E6
:10102000000402401CB501210220FFF7E1FA4FF451
:101030000040009001208DF8040000208DF806008B
:1010400003208DF8050001208DF80700694602484D
:10105000FFF712FA1CBD0000000402404FF0407080
:10106000E1EE100A70470000881000080000002020
:1010700030000000C4010008B81000083000002053
:1010800060060000E0010008000000000000000011
:101090000000000000000000000000000000000050
:1010A0000000000000000000000000000000000040
:0810B000000000000000000038
:040000050800018965
:00000001FF
